:020000040800F2
:10000000A0060020CD01000815040008A703000881
:100010001104000887020008A90800080000000079
:100020000000000000000000000000008105000842
:100030008B020008000000008904000895060008F3
:10004000E7010008E7010008E7010008E7010008F0
:10005000E7010008E7010008E7010008E7010008E0
:10006000E7010008E7010008E7010008E7010008D0
:10007000E7010008E7010008E7010008E7010008C0
:10008000E7010008E7010008E7010008E7010008B0
:10009000E7010008E7010008E7010008E7010008A0
:1000A000E7010008E7010008E7010008E701000890
:1000B000E7010008E7010008E7010008E701000880
:1000C000E7010008E7010008E7010008E701000870
:1000D000E7010008F9060008E7010008E701000849
:1000E000E7010008E7010008E7010008E701000850
:1000F000E7010008E7010008E7010008E701000840
:10010000E7010008E7010008E7010008E70100082F
:10011000E7010008E7010008E7010008E70100081F
:10012000E7010008E7010008E7010008E70100080F
:1001300000F002F800F03AF80AA090E8000C8244BF
:100140008344AAF10107DA4501D100F02FF8AFF29C
:10015000090EBAE80F0013F0010F18BFFB1A43F0A5
:1001600001031847C4090000E4090000103A24BF45
:1001700078C878C1FAD8520724BF30C830C144BF0C
:1001800004680C607047000000230024002500264E
:10019000103A28BF78C1FBD8520728BF30C148BFEA
:1001A0000B6070471FB51FBD10B510BD00F031F8D2
:1001B0001146FFF7F7FF00F0C1FB00F04FF803B462
:1001C000FFF7F2FF03BC00F057F800000948804732
:1001D00009480047FEE7FEE7FEE7FEE7FEE7FEE729
:1001E000FEE7FEE7FEE7FEE704480549054A064B41
:1001F000704700009906000831010008A0000020A7
:10020000A0060020A0020020A00200207047704736
:100210007047754600F02CF8AE4605006946534617
:1002200020F00700854618B020B5FFF7DDFFBDE8D8
:1002300020404FF000064FF000074FF000084FF04D
:10024000000B21F00701AC46ACE8C009ACE8C009DE
:10025000ACE8C009ACE8C0098D46704710B504464B
:10026000AFF300802046BDE81040FFF7A8BF0000B4
:10027000004870473C00002001491820ABBEFEE753
:1002800026000200704700BFFEE770472DE9F041ED
:10029000024600250026002000230024002791F8B4
:1002A00003C00CF00F0591F803C00CF0100CBCF16A
:1002B000000F03D091F802C04CEA050591F800C088
:1002C000BCF1000F31D0146800202BE04FF0010C7E
:1002D0000CFA00F3B1F800C00CEA03069E4220D1EC
:1002E00083004FF00F0C0CFA03F7BC4305FA03FC34
:1002F0004CEA040491F803C0BCF1280F06D14FF07A
:10030000010C0CFA00FCC2F814C00AE091F803C01A
:10031000BCF1480F05D14FF0010C0CFA00FCC2F8FB
:1003200010C0401C0828D1D31460B1F800C0BCF143
:10033000FF0F34DD546800202EE000F1080C4FF070
:10034000010808FA0CF3B1F800C00CEA03069E425B
:1003500021D183004FF00F0C0CFA03F7BC4305FAD0
:1003600003FC4CEA040491F803C0BCF1280F05D14A
:1003700000F1080C08FA0CF8C2F8148091F803C0D8
:10038000BCF1480F07D100F1080C4FF0010808FA42
:100390000CF8C2F81080401C0828CED35460BDE889
:1003A000F0810161704700BFFEE7000008B5012140
:1003B000042000F06BF8FF20ADF8000028208DF835
:1003C000030002208DF8020069460248FFF75EFF35
:1003D00008BD00000008014008B50121102000F010
:1003E00055F84FF40050ADF8000010208DF80300D0
:1003F00002208DF8020069460448FFF747FF4FF4DA
:1004000000510248FFF7CDFF08BD00000010014079
:1004100000BFFEE77047000070B5002100230F22E7
:10042000C47804B3154C246804F4E064C4F5E064B3
:10043000210AC1F10403CA40447804FA03F1847824
:100440001440214309010E4C0678A155047804F0AC
:100450001F050124AC4005786D11AD0005F1E025C4
:10046000C5F8004109E0047804F01F050124AC4000
:10047000044D0678761145F8264070BD0CED00E07D
:1004800000E400E080E100E07047000029B1064A86
:1004900092690243044B9A6104E0034A92698243E1
:1004A000014B9A61704700000010024030B50021F6
:1004B0000022002400232D4D6D6805F00C0121B1B0
:1004C000042905D0082923D105E0294D056022E043
:1004D000274D05601FE0254D6D6805F47012234D12
:1004E0006D6805F48034022505EB92421CB9214D5C
:1004F000554305600BE01D4D6D6805F400351DB1D9
:100500001C4D5543056002E0194D5543056002E05E
:10051000174D056000BF00BF144D6D6805F0F00178
:100520000909154D6B5C0568DD4045600F4D6D6830
:1005300005F4E061090A104D6B5C4568DD4085609B
:100540000A4D6D6805F46051C90A0B4D6B5C456836
:10055000DD40C560054D6D6805F44041890B074DD0
:100560006B5CC568B5FBF3F5056130BD001002405A
:1005700000127A0000093D00280000203800002009
:10058000704710B500F002F810BD00000CB5002057
:10059000019000903348006840F480303149086091
:1005A00000BF3048006800F4003000900198401C03
:1005B0000190009818B90198B0F5A06FF1D12948C1
:1005C000006800F4003010B10120009001E000202C
:1005D00000900098012843D12348006840F01000A3
:1005E000214908600846006820F0030008600846BA
:1005F000006840F0020008601A48406819494860E5
:100600000846406848600846406840F4806048609A
:100610000846406820F47C1048600846406840F472
:10062000E81048600846006840F08070086000BF2D
:100630000C48006800F000700028F9D009484068B4
:1006400020F00300074948600846406840F0020077
:10065000486000BF0348406800F00C000828F9D14A
:100660000CBD00000010024000200240042808D108
:100670004FF0E021096941F004014FF0E0221161DF
:1006800007E04FF0E021096921F004014FF0E0227A
:10069000116170477047000010B51348006840F0C2
:1006A00001001149086008464068104908400E4999
:1006B0004860084600680E4908400B490860084633
:1006C000006820F4802008600846406820F4FE009E
:1006D00048604FF41F008860FFF753FF4FF0006041
:1006E0000449086010BD0000001002400000FFF83F
:1006F000FFFFF6FE08ED00E010B520210B4800F0EA
:1007000030F848B100200A490860642000F0F0F891
:1007100001200849C1F8B401044800880348001DBD
:100720000088A021014800F007F810BD0038014002
:10073000B40122420000224201F40072B2F5007FAF
:1007400000D100BFCA430280704721B1828942F4C0
:100750000052828104E082894DF6FF731A40828143
:10076000704702460020B1F5007F00D100BF13881A
:100770000B400BB1012000E000207047F0B50346AC
:10078000002400260025002040F66A17B94200D157
:1007900000BF1846C1F3421401F01F06012707FAF3
:1007A00006F5012C01D10C3004E0022C01D11030EF
:1007B00000E014301AB107682F43076002E00768B1
:1007C000AF430760F0BD00002DE9F04786B0054655
:1007D0000E460024A24600BFA1460027B08900B102
:1007E00000BF2F462C8A4CF6FF700440F08804436B
:1007F0002C82AC894EF6F3100440B088318908434E
:10080000718908430443AC81AC8A4FF6FF40044031
:10081000B0890443AC8201A8FFF748FE1F48874215
:1008200002D1DDF810A001E0DDF80CA0A88900F4E9
:10083000004040B10AEBCA0000EB0A1031684900E1
:10084000B0FBF1F807E00AEBCA0000EB0A103168D0
:100850008900B0FBF1F86420B8FBF0F00401200936
:10086000642101FB1089A88900F4004040B13220C6
:1008700000EBC900B0FBF1F000F00700044308E012
:10088000322000EB09106421B0FBF1F000F00F0002
:1008900004432C8106B0BDE8F08700000038014019
:1008A000C1F308028280704700BFFEE710B56FF009
:1008B0000400FFF7DBFE0A4800680A49B0FBF1F0CC
:1008C000094908700846007800EB4001C1EBC010F0
:1008D0004FF6FF7101EAC0000449088010BD000016
:1008E0001000002000127A002400002026000020C2
:1008F0000146114A12884A434FF0E0235A61002210
:100900009A611A46126942F001021A6100BF4FF063
:10091000E022106900F001021AB100F48032002ACE
:10092000F5D04FF0E022126922F001024FF0E023EF
:100930001A6100229A61704726000020FFF7B6FF77
:100940004FF4964000F09CF8FFF746FDFFF72EFDB0
:100950004620464908700020488088800846007874
:1009600089780844414909790844404948707BE046
:100970003F48006800F001003D490968C1F34001AB
:10098000401A3A49898801EB400000B23749888013
:100990003848007898B136480068C0F38000344980
:1009A0000968C1F3C001401AC0EBC0002F49498853
:1009B000084400B22D4948804620087011E02C48B8
:1009C0000068C0F300102A490968C1F34011401AB9
:1009D0002649498801EB800000B2244948804C2018
:1009E00008702448007808B9012000E0002021495F
:1009F00008701E48B0F902001C49B1F90410884281
:100A000000D131E01948007818498978084417491D
:100A10000979084415494870BD211748FFF740FF80
:100A200000201649086017E000BF80211248FFF738
:100A300098FE0028F9D00D48104A1268815C0E48D3
:100A4000FFF72EFF002009490C4A126888540B4812
:100A50000068401C09490860084800680628E3DB74
:100A60000720FFF745FF00BF82E7000000000020DD
:100A7000080801400600002000380140080000205E
:100A800010B586B0044601218803FFF7FFFC012161
:100A90000420FFF7FBFC4FF40070ADF814000320B6
:100AA0008DF8160018208DF8170005A91C48FFF7CF
:100AB000EDFB4FF48060ADF8140028208DF817008E
:100AC00005A91748FFF7E2FB25208DF80000032059
:100AD0008DF801008DF8020001208DF803006846B2
:100AE000FFF79AFC01940020ADF80800ADF80A0069
:100AF000ADF80C00ADF810000C20ADF80E0001A907
:100B00000848FFF761FE012240F225510548FFF732
:100B100035FE01210348FFF718FE06B010BD0000A6
:100B20000008014000380140480B00080000002088
:100B30003C0000006C010008840B00083C00002011
:100B400064060000880100080000000000000000AA
:100B5000000000000000000000A24A0400000000A5
:100B6000000000000102030406070809000000005D
:100B70000000000001020304010203040607080943
:040B8000020406085D
:04000005080001CD21
:00000001FF
