:020000040800F2
:1000000080090020E901000831220008E71A0008F1
:10001000651E000871170008CB36000800000000BC
:10002000000000000000000000000000B1260008F1
:10003000FD180008000000003B2500088928000882
:10004000030200080302000803020008030200087C
:10005000030200080302000803020008030200086C
:10006000030200080302000803020008030200085C
:10007000030200080302000803020008030200084C
:10008000030200080302000803020008030200083C
:10009000030200080302000803020008030200082C
:1000A000030200082D2B00080302000803020008C9
:1000B000812B000803020008030200080302000865
:1000C00003020008030200080302000803020008FC
:1000D0000302000849310008030200080133000848
:1000E00003020008030200080302000803020008DC
:1000F00003020008030200080302000803020008CC
:1001000003020008030200080302000803020008BB
:1001100003020008030200080302000803020008AB
:10012000030200080302000803020008030200089B
:1001300000F002F800F048F80AA090E8000C8244B1
:100140008344AAF10107DA4501D100F03DF8AFF28E
:10015000090EBAE80F0013F0010F18BFFB1A43F0A5
:10016000010318478C450000AC450000103A24BF3D
:1001700078C878C1FAD8520724BF30C830C144BF0C
:1001800004680C607047000000230024002500264E
:10019000103A28BF78C1FBD8520728BF30C148BFEA
:1001A0000B6070471FB500F093F904000020002198
:1001B00003F06AFC401C60600020002103F04EFC4C
:1001C000E0601FBD10B510BD00F05CF91146FFF7EF
:1001D000E9FF03F0C7FB00F009FC03B4FFF7F2FFEF
:1001E00003BC00F0E9FE00000948804709480047C9
:1001F000FEE7FEE7FEE7FEE7FEE7FEE7FEE7FEE7D7
:10020000FEE7FEE704480549054A064B7047000033
:100210008D2800083101000880030020800900209B
:10022000800500208005002070B5064600F00CF81F
:100230000468054630460A22002100F067F82C6069
:1002400070BD70477047704700487047200300201A
:1002500010B5FFF7F9FF006810BD10B50446FFF7B1
:10026000F3FF046010BD00000FB4002300B589B097
:100270000CA900910B99CB60214B7B440693214B39
:100280007B44079304236FF00042CDE901321E4AFC
:100290007A446B4608920246002003F0B5FD09B08F
:1002A0005DF814FB70B506464FF0FF3015460C465E
:1002B000324686B00091CDE90101694600200490E4
:1002C00004A8FFF7D1FF02460498211825B108B110
:1002D000084600E020462860049800280DD0002A37
:1002E00002DD0098884208D03246081B6946009417
:1002F000CDE9010404A8FFF7B7FF06B070BD000008
:100300002901000041010000010100002DE9F04732
:1003100091460F4680460446002614F8015B2DB135
:1003200000F030F80068405DC007F6D12B2D02D0F8
:100330002D2D18D0641E4A463946204600F053F849
:1003400027B13968A14201D1C7F800804FF00204FB
:1003500071050BD54042002803DDFFF775FF0460EF
:10036000A007BDE8F08746F48066E4E70028F8DAE5
:10037000FFF76AFF04606FF00040F2E70048704743
:100380002003002010B500F0A3F8001D10BD00BF31
:10039000F936000010B50446FFF7F4FF0068005D71
:1003A00000F0010010BD426842B1016811F8013B44
:1003B00023B1521EC0E90012184670470121C160E6
:1003C000881E704742685AB1C368016843B98368A0
:1003D0008B4205D0491E521CC0E900120020704714
:1003E0004FF0FF3070472DE9F05F824615468B468F
:1003F00000270AF10104B9460078302801D09DB1E8
:1004000013E014F8010B0127782803D0582801D0F5
:1004100045B10AE00DB1102D07D1002714F8010BEA
:10042000102502E0082500E00A250026B0460EE06F
:1004300005FB080005FB06F101271FFA80F801EB18
:100440001046B6F5803F00D3B94614F8010B294693
:1004500000F042F80028EBDABBF1000F05D00FB135
:10046000641E00E05446CBF80040B9F1000F06D0FE
:10047000FFF7EAFE02210160C81EBDE8F09F48EACE
:100480000640FAE77546FFF779FFAE460500694674
:10049000534620F00700854618B020B5FFF7B2FE9E
:1004A000BDE820404FF000064FF000074FF0000875
:1004B0004FF0000B21F00701AC46ACE8C009ACE8F6
:1004C000C009ACE8C009ACE8C0098D46704700001F
:1004D00000487047400300203A2800D2303820F00E
:1004E0002002412A01D3A2F13700884201D34FF004
:1004F000FF3070472DE9FF4F06468BB00878FF2884
:1005000006D0491C2D2805D000244FF0000908E032
:1005100000200CE00124F8E709EB8903491C00EBFB
:1005200043090878FF28F7D114B1C9F100008146CA
:10053000107800252C46AA4629462D2801D02B28C4
:1005400004D1521C2D2813D0002082468B461078EF
:10055000FF280FD04FF0000C0A21521CA5FB017898
:1005600004FB018105FB0C11C5194BEB0104EEE7FF
:100570000120EAE7002108464FF00000BAF1000F21
:1005800002D000EB80004008C0F38157012F01DD4D
:100590004FF0FF370E9955EA040009EB01080BD024
:1005A0004FF0020918F5FA7F16DA4FEACA70002FE9
:1005B000706008DD012007E04FEACA70C6E900B0AC
:1005C0000FB0BDE8F08F00203060FFF73DFEC0F8AF
:1005D00000901821084616E0B8F5FA7F18DD002FC4
:1005E00002DAF748784401E0F6487844D0E9001090
:1005F000C6E9001040EACA707060FFF725FEC0F837
:100600000090142108460FB0BDE8F04F03F099BBED
:10061000002108464FF00000B8F10001099002DA0D
:10062000C7F1000200E03A4601DAC8F1000106A86D
:1006300000F026FA06AB93E8070003AB83E8070057
:1006400044F23E005BEA04010090584604D144F2B3
:100650001E012C465D460091210C0904014306D180
:100660000099240444EA15442D041039009104F043
:100670007F41014306D10099240244EA15642D020A
:100680000839009104F07041014306D1009924011A
:1006900044EA15742D01091F009104F04041014303
:1006A00006D10099A40044EA9574AD00891E00911A
:1006B00004F00041084304D100986D196441401EC4
:1006C00000904FF001033A466846B8F1000FCDE9BB
:1006D000014503A902DD00F014FF01E000F0E7FE90
:1006E000BAF1000F04460D4601D084F00044002109
:1006F00008464FF00000099940F2FF77484010F09B
:100700000C0F07D124F00040284303D0C4F30A5053
:10071000B84212D1FFF798FDC0F80090C4F30A5018
:10072000B8420AD1A8487844D0E90010C6E90010C0
:1007300004F000410843706042E7C6E900543FE717
:100740002DE9FF4F1F464FF0000A4FF0FF38454696
:1007500091B0D7E90146CDF83CA0FFF7B9FEC068DB
:100760000168405C1090B96912986D1C8847396A1D
:10077000814688470028F6D1B9F1FF3F0AD0002E04
:1007800024F4D06411DDB9F12B0F08D0B9F12D0F8D
:100790000BD102E0404615B013E744F48064B96918
:1007A00012986D1C8847761E8146600504A901D504
:1007B0002D2000E02B20002E01F1010B0DF130085F
:1007C0008DF810003FDDB9F1690F08D0B9F1490F7C
:1007D00005D0B9F16E0F02D0B9F14E0F1CD13B46D6
:1007E00001A8009580E85002DDE912126FF00200C6
:1007F00003F00EFBC11CCED10EE0B96912986D1C3E
:10080000884781461398761E44F4007405600F985B
:10081000401C002E0F9016DDB9F1300FEDD0B9F16C
:10082000780F02D0B9F1580F0DD10F9801280AD1D5
:100830003B46CDE90054DDE91212001F029603F099
:10084000E5FAC11CA7D1109989453ED144F0800436
:1008500006E01399681CAAF1010A44F400740860C8
:10086000B9696D1C1298761E884730288146F0D0F1
:100870002BE01099894505D1200603D4761E44F05B
:10088000800418E0484602F0A2FF08B3761E0DF17E
:1008900023018B4544F4007408D2A9F130000BF811
:1008A000010B200607D5AAF1010003E0200602D4BF
:1008B0000AF101008246A00502D51399681C086060
:1008C000B96912986D1C88478146002ED1DC53E02F
:1008D000002E51DDB9F1650F02D0B9F1450F4BD1B2
:1008E000A00549D5B9696D1C1298761E24F4407490
:1008F0008847002E81460CDD2B2804D0B9F12D0F3E
:1009000007D144F48074B96912986D1C8847761E2B
:100910008146E00501D52D2100E02B2108F8011BBF
:10092000CDF8008021E0761E0DF13901884544F4B0
:1009300000740CD2A9F1300010F0FF0088F800001C
:1009400002D10099884509D908F1010806E0E005BF
:1009500001D51E4801E042F20F708246B969129833
:100960006D1C8847814613980560002E04DD4846BB
:1009700002F02DFF0028D6D1F96912988847FF2090
:1009800053468BF8000088F8000000200A900B9076
:1009900004AA0CA90AA8FFF7ADFDA00502D46FF0C8
:1009A0000100F8E614F0240F12D0E0071CD13868DB
:1009B000DDE90A12031D3B600068C0E9001213E084
:1009C0003041000022410000E63F0000F1D8FFFF67
:1009D0000AA9684602F08AFEE00705D13868009A45
:1009E000011D3960006802602846D4E610B504464F
:1009F000AFF300802046BDE81040FFF7EEBB0000DB
:100A00004FF0013C50F8042B51F8043B9A4221D19D
:100A1000A2EB0C03934313EACC1317D150F8042B29
:100A200051F8043B9A4215D1A2EB0C03934313EA0D
:100A3000CC130BD150F8042B51F8043B9A4209D146
:100A4000A2EB0C03934313EACC13DBD04FF000006E
:100A5000704700BFD01A01BAB1FA81F101F0180154
:100A600022FA01F0CB40C1F12001DBB2C0B2C01AC2
:100A70002CFA01F3D11A914311EAC311E6D1704760
:100A80002DE9F047814616468AB0354878440DC8AE
:100A90008DE80D0032487844801C03AC0DC884E812
:100AA0000D0041F69B300844372190FBF1F290FB9A
:100AB000F1F5A5F1800501FB12041B3C02D564424F
:100AC000012000E00020DFF898A080460027FA44CB
:100AD000AAF1BE0A0EE0E0070AD03246684607EBEC
:100AE000470101230AEB810100F0F6FC8DE80700C5
:100AF00064107F1C002CEED1194F7F44AE3F19E0EB
:100B0000E80715D007EB04100DF1180A90E80E0065
:100B10008AE80E00C068F04201D198190890324668
:100B2000012306A903A800F0D7FC03AB83E8070064
:100B30006D10641C002DE3D14FF00103324669466D
:100B4000B8F1000F03A802D000F09CFC01E000F017
:100B5000C3FCC9E90001C9F808200AB0BDE8F08764
:100B6000483C00002DE9FF4F1F464FF03C0987B07D
:100B70004FF00042DDE9141001F10108DDF858A042
:100B800002EA405003900020059083460546044643
:100B90000490B969461E08988847AAF1010A029094
:100BA000BAF1000F3BDD02982E2815D01021FFF777
:100BB00093FC00282EDB4FF0010B0599014317D061
:100BC000B9F1000F0BDB4A46C11700F0FBF90543F2
:100BD0000C43A9F1040905E0012004900BE008B1E1
:100BE00045F0010501200590049820B9361D02E06A
:100BF000049800B1361FB969089808F101088847C0
:100C0000BBF1000FAAF1010A0290C9D00999C1F8FD
:100C10000080C5E70298702808D0502806D0F969EE
:100C200008988847BBF1000F14D04FE000200290D5
:100C30000120BBF1000F049009D0B969089808F1B0
:100C400001088847AAF10109B9F1000F07DCF96929
:100C5000089888476FF001000BB0BDE8F08F2B2893
:100C600004D02D280CD14FF0FF300490B9690898BA
:100C700008F101088847A9F10109B9F1000FE6DD83
:100C8000411CE4D00A21FFF727FC0028DFDB029992
:100C900008F1010801EB810100EB41000290B96904
:100CA000089888470A21FFF717FC099AA9F101095A
:100CB000B9F1000FC2F8008001DD0028E7DAF96918
:100CC000089888470499029800FB016655EA0400D9
:100CD00004D004F04041090002D006E0039898E0F7
:100CE000A40044EA9574AD00B61E04F0004108006B
:100CF00002D16D196441761E159810F0240F03D0AF
:100D00004FF00B095C4803E04FF028096FF07D00BD
:100D10008246564507DAAAEB06018944B9F1410F2C
:100D200001DD4FF0410901200021A9F1010200F08D
:100D300049F9024628400B462140084301D00121D1
:100D400000E00021501E029143F1FF312840214074
:100D5000084301D0012000E000200299834651EAB7
:100D60000B014FD0002108464FF00000039900F41A
:100D7000400039B100EB80004FF4400100EBD0702F
:100D800001EA60008015012802DD4FF0FF3000E02D
:100D900013D0401C36D0029860B3BBF1000F0CD1C9
:100DA0004A460120002100F00DF928402140084367
:100DB00001D0012000E00020E0B101204A460021DE
:100DC00000F000F9034640190A4661412D1A8C4192
:100DD00011D3B9F1400F09DD159810F0240F02D09E
:100DE000AAF1340603E0AAF1170600E0761C0025FC
:100DF0004FF0004406E05B1E42F1FF3220EA03059B
:100E000021EA0204CAF10100B04206DA1B49039844
:100E100008430190002000900EE0039AC4F3D32110
:100E2000E80A0A43164940EA44500A433146CDE9EC
:100E30000002684602F0C0FC159810F0240F0BD099
:100E40001598C00715D13868DDE90012031D3B6015
:100E50000068C0E900120CE002A8694602F046FCF6
:100E60001598C00705D13868029A011D39600068DD
:100E700002604046F0E6000002FCFFFF0000F07F49
:100E80000000F03F2DE9FF4F92461D4685B04FF020
:100E90000041DDE9124BDDE914727F1E01EA4B507F
:100EA000414940F0FF4940EA0108002122F02000BA
:100EB0004928049102D04E2828D04CE03BA00126BE
:100EC00007C88DE80700A9690698641C88477F1E3B
:100ED000014606D41DF8060018B121F02001814218
:100EE0000BD0E96906988847032E34D0082E32D0FB
:100EF0006FF0010009B0BDE8F08F761C032E01D021
:100F0000082EE0D1601CCAF80000DCE7A969069849
:100F1000641C88477F1E2AD420F02000412826D157
:100F2000A9690698641C88477F1E20D420F0200001
:100F30004E281CD1A9690698641C88477F1E48F476
:100F4000002849F48009CAF8004001D4282806D0B6
:100F5000E969069888475FEACB7012D022E0A96958
:100F60000698641C88477F1E01D4002803DAE969CB
:100F700006988847BCE72928F1D1641CCAF80040CC
:100F8000E9E71BF0240F07D028680499031D2B60A4
:100F90000068C0E9001805E02868021D2A600068A2
:100FA000C0F800902046A5E70000F07F494E464972
:100FB0004E4954590000000001491820ABBEFEE71D
:100FC00026000200B2F120030AD5C2F1200301FA83
:100FD00002F120FA03F300FA02F041EA030170473C
:100FE00000FA03F14FF000007047704720F07F4C8B
:100FF00080EA030023F07F47ACEB070303F57C5343
:1010000000F0004003F1FF032DE980494FEA154B42
:1010100009B44FEA144325EA0B4E24EA03480FF2C1
:10102000042606EB132749083E785FEA320203FBE9
:101030000667C7F5000707FB06F64FEA54374FEA85
:10104000D64606F1020607FB066CCCF1005C4FEABF
:101050001C472CEA074C07FB06F40CFB06F504EBD7
:1010600015464FEA961634BF00204FF000404FEA75
:10107000D13706FB07FC4FEA1C4C0CFB0BF7D21BCD
:1010800003FB0CF761EB07010CFB0EF7B0EB07401D
:1010900072EB17420CFB08F734BFA2EB0742B2EB2E
:1010A000074261EB17414FEA0C444FEA910706FBF8
:1010B00007FC4FEA1C4C0CFB0BF7B0EBC74072EB84
:1010C000573203FB0CF734BFA2EBC742B2EBC74267
:1010D00061EB57310CFB0EF7B0EBC70072EB5772A8
:1010E0000CFB08F734BFA2EBC702B2EBC70261EBFF
:1010F0005771039F4FEA816141EA921104EBCC04DE
:101100004FEAD1374FEA826206FB07FC42EA9012AF
:101110004FEA80604FEA1C4C0CFB0BF7D21B03FB21
:101120000CF761EB07010CFB0EF7B0EB074072EB1D
:1011300017420CFB08F734BFA2EB0742B2EB0742A1
:1011400061EB17414FEA8C554FEA910704EB9C2461
:1011500006FB07FC4FEA1C4C0CFB0BF7B0EBC7403F
:1011600072EB573203FB0CF734BFA2EBC742B2EB72
:10117000C74261EB57310CFB0EF7B0EBC70072EBC7
:1011800057720CFB08F734BFA2EBC702B2EBC702E1
:1011900061EB577115EB4C254FEA816141EA9211E1
:1011A0004FEA82624FEAD13742EA901206FB07FC0F
:1011B00044F100044FEA80604FEA1C4C0CFB0BF733
:1011C000D21B03FB0CF761EB07010CFB0EF7B0EB36
:1011D000074072EB17420CFB08F734BFA2EB074243
:1011E000B2EB074261EB174115EB1C154FEA813159
:1011F00041EA92414FEA823242EA90424FEA80301D
:101200004FEA0C7644F1000448EA03434EEA0B48E7
:101210004FF0000EB2EB080C71EB030724BF6246DF
:1012200039464EEB0E0E4FF0000B0018524149416B
:101230004BEB0B0BB2EB080C71EB03077BF1000BD4
:1012400024BF624639464EEB0E0E4FF0000B0018DD
:10125000524149414BEB0B0BB2EB080C71EB03070E
:101260007BF1000B24BF624639464EEB0E0E51EA6D
:10127000020718BF46F0010616EB0E7655F1000284
:1012800054F1000103D5BDE88901BDE80088BDE83F
:101290008901BDE80048B619524141EB0101A3F1B3
:1012A0000103704780807F7E7D7C7B7A79787776BA
:1012B00076757473727171706F6E6E6D6C6C6B6A33
:1012C0006A696868676666656464636362616160D1
:1012D000605F5F5E5E5D5D5C5C5B5B5A5A5959584E
:1012E00058575756565555555454535352525251B8
:1012F000515050504F4F4F4E4E4D4D4D4C4C4C4B0E
:101300004B4B4A4A4A494949484848474747474654
:101310004646454545444444444343434342424290
:101320004241414146EA0646A3F570534FEA16464C
:1013300046EA42564FEAD22242EA415210B54FEAFB
:10134000D121A3F1010300F02FF820F0004000F1BB
:10135000020C00F0004701EB00501146BCF5006F95
:1013600040EA070000D210BDBAF1000F0AD01CB548
:1013700003B44FF004004FF004014FF000000FBC25
:10138000BDE810404FF00001BBF1010FB9BF0448A8
:101390004FF0FF310348002140EA070010BD00BFB5
:1013A000FFFFEF7F0000F07F002B9C4630D47700DA
:1013B0002BD01CB54FEA370703B44FF010004FF0A5
:1013C0001001BAF1000F06D0BCF1000FDCBF40F0F5
:1013D000080040F008014FF000000FBCBDE81040CD
:1013E0000BF1010BBBF1010F08BF5FEA170722BF2A
:1013F00012F1010211F101014FF0004143F100032C
:1014000000F0004043EA00007047F9D35708D0E7E6
:1014100046EA064613F1400F4FEA16461FDD13F168
:10142000200FDFBF16430A46002120335B42BED0A7
:10143000C3F1200746EA064602FA07F74FEA1646C6
:1014400046EA0706C3F1200722FA03F201FA07F77A
:1014500021FA03F14FF0000342EA0702A7E746EA48
:10146000020646EA06464FEA164646EA0106BCBFB1
:1014700046EA0646360C4FF000034FF000024FF0EC
:10148000000194E72DE9804C9A46934670B491E8A8
:10149000380007C831EA400C48BF34EA430C03D592
:1014A000FFF7A4FDFFF780FFF0BCBDE8008C2DE93D
:1014B000804C9A46934670B491E8380007C831EAE8
:1014C000400C48BF34EA430C03D5FFF78FFDFFF70C
:1014D00029FFF0BCBDE8008C2DE9804C9A4693466C
:1014E00070B491E8380007C810F0804F08BF13F0BF
:1014F000804F03D100F01AF8FFF756FFF0BCBDE8AB
:10150000008C2DE9804C9A46934670B491E83800DF
:1015100007C810F0804F08BF13F0804F03D100F0D0
:1015200005F8FFF7FFFEF0BCBDE8008C20F07F4718
:1015300080EA030023F07F4C07EB0C03A3F57C53F8
:1015400000F00040A3F1FE0392F0000F00F0B38022
:1015500095F0000F00F077802DE901494FEA114026
:101560004FEA144621EA004800FB06FC24EA06473D
:1015700008FB06F607FB08F800FB07F718EB064820
:101580004CEB164C4FEA124B18EB07484FEA154646
:101590004CEB174022EA0B4E0BFB06FC25EA0647F4
:1015A0000EFB06F607FB0EFE0BFB07F71EEB064EC7
:1015B0004CEB164C4FF000061EEB074E4CEB174B56
:1015C00018EB0B0840F1000018EB0E0B58EB00086D
:1015D00040F100008F1A4FF000013CBFC943661B69
:1015E00014BFB5EB040C00213CBFC943F61B4FEA06
:1015F00017444EEA8E0E27EA04454FEA1C4704FBC7
:1016000007622CEA074C05FB07F70CFB05F604FB09
:101610000CFC16EB074642EB174216EB0C4642EB6E
:101620001C421BEB060658EB0202414146EA9E06AD
:1016300001D5BDE80189B619524141EB0101A3F181
:101640000103BDE801894FEA14454FEA114724EA36
:10165000054621EA074C05FB07F406FB07F70CFBE0
:1016600006F105FB0CFC11EB074144EB17444FEA74
:10167000124711EB0C4144EB1C4422EA074C05FBDA
:1016800007F206FB07F70CFB06F605FB0CFC16EB56
:10169000074642EB174216EB0C4642EB1C456A1814
:1016A00054F1000148BF7047B619524141EB0101A6
:1016B000A3F10103704795F0000F37D04FEA1142B4
:1016C0004FEA144721EA024624EA074C02FB07F1DD
:1016D00006FB07F70CFB06F402FB0CFC14EB0744BB
:1016E00041EB17414FEA154714EB0C4441EB1C4109
:1016F00025EA074C02FB07F506FB07F70CFB06F68D
:1017000002FB0CFC16EB074645EB174516EB0C46A7
:1017100045EB1C42121951F1000148BF7047B61940
:10172000524141EB0101A3F1010370474FEA144517
:101730004FEA114724EA054621EA074C05FB07F169
:1017400006FB07F70CFB06F24FF0000605FB0CFC4E
:1017500012EB074241EB174112EB0C4251EB1C41DB
:1017600048BF7047921841EB0101A3F10103704794
:1017700000BFFEE701684FF6FE72114001600021D4
:10178000016041608160C1604B49884208D14A498B
:101790000839496841F00F01474A083A51608AE028
:1017A00045491431884208D143490839496841F014
:1017B000F001414A083A51607DE03F4928318842B2
:1017C00008D13D490839496841F470613A4A083AFC
:1017D000516070E038493C31884208D136490839B7
:1017E000496841F47041344A083A516063E0324933
:1017F0005031884208D130490839496841F4702194
:101800002D4A083A516056E02B496431884208D18C
:1018100029490839496841F47001274A083A51605A
:1018200049E025497831884208D123490839496877
:1018300041F07061204A083A51603CE01F498842FB
:1018400006D1011F096841F00F01021F116032E04B
:101850001A491431884208D11849091F096841F012
:10186000F001164A121F116025E014492831884200
:1018700008D11249091F096841F470610F4A121F0B
:10188000116018E00D493C31884208D10B49091F0D
:10189000096841F47041094A121F11600BE00749C1
:1018A0005031884207D10549091F096841F4702168
:1018B000024A121F116070470800024008040240EB
:1018C00010B50022026847F6F0739A430C6A8B68E1
:1018D00023430C6923434C6923438C692343CC691C
:1018E00023434C6A23438C6A23431A430260CB6828
:1018F00043600B6883604B68C36010BD7047000095
:1019000010B504462948844208D10121042000F082
:1019100055FE0021042000F051FE46E02448844298
:1019200008D10121082000F049FE0021082000F024
:1019300045FE3AE01F48844208D10121102000F002
:101940003DFE0021102000F039FE2EE01A488442AE
:1019500008D10121202000F031FE0021202000F0DC
:101960002DFE22E01548844208D10121402000F0DC
:1019700025FE0021402000F021FE16E010488442A0
:1019800008D10121802000F019FE0021802000F004
:1019900015FE0AE00B48844207D10121801500F0B2
:1019A0000DFE0021A01500F009FE10BD0008014049
:1019B000000C0140001001400014014000180140DB
:1019C000001C0140002001402DE9F04102460025A5
:1019D0000026002000230024002791F803C00CF00B
:1019E0000F0591F803C00CF0100CBCF1000F03D0F0
:1019F00091F802C04CEA050591F800C0BCF1000F57
:101A000031D0146800202BE04FF0010C0CFA00F3E9
:101A1000B1F800C00CEA03069E4220D183004FF0CB
:101A20000F0C0CFA03F7BC4305FA03FC4CEA040460
:101A300091F803C0BCF1280F06D14FF0010C0CFA4D
:101A400000FCC2F814C00AE091F803C0BCF1480FD2
:101A500005D14FF0010C0CFA00FCC2F810C0401C7C
:101A60000828D1D31460B1F800C0BCF1FF0F34DDF9
:101A7000546800202EE000F1080C4FF0010808FA2D
:101A80000CF3B1F800C00CEA03069E4221D183009A
:101A90004FF00F0C0CFA03F7BC4305FA03FC4CEAB9
:101AA000040491F803C0BCF1280F05D100F1080C23
:101AB00008FA0CF8C2F8148091F803C0BCF1480F82
:101AC00007D100F1080C4FF0010808FA0CF8C2F831
:101AD0001080401C0828CED35460BDE8F0814161DD
:101AE00070470161704700BFFEE700002DE9F0413B
:101AF00005460F46164600240121294800F0A0F8AB
:101B000006E0B4F5807F02D90020BDE8F081641CB6
:101B10002449234800F04AF80028F2D0002468063F
:101B2000010E00221E4800F019F905E0B4F5807F8F
:101B300001D90020E9E7641C1B49194800F036F878
:101B40000028F3D000243946154800F010F905E0CC
:101B5000B4F5807F01D90020D7E7641C1249891CA5
:101B60000F4800F023F80028F2D0002400BF3146CF
:101B70000B4800F0FCF805E0B4F5807F01D90020A7
:101B8000C3E7641C0849891C054800F00FF80028C9
:101B9000F2D000240121024800F05EF80120B4E7F1
:101BA00000540040010003008200070070B50246A7
:101BB0000024002500230020958A138B1B0445EA8E
:101BC000030626F07F4404EA01068E4201D101207B
:101BD00000E0002070BD21B1028842F001020280C5
:101BE00004E002884FF6FE731A400280704721B16C
:101BF000828842F40062828004E082884FF2FF73A0
:101C00001A4082807047000010B504460B48844299
:101C100009D10121480500F0B1FC00214FF400106A
:101C200000F0ACFC08E00121880500F0A7FC0021D1
:101C30004FF4800000F0A2FC10BD000000540040F2
:101C400021B1028842F48072028004E002884FF6DB
:101C5000FF631A400280704721B1028842F400728B
:101C6000028004E002884FF6FF531A40028070475A
:101C70002DE9F04385B004460D460026B146042701
:101C8000DFF8CC80A6884FF6C0700640684600F0AA
:101C9000A5FCDDF808802F48B8FBF0F01FFA80F9AA
:101CA00046EA0906A68020884FF6FE71084020808B
:101CB00000262949286888420CD828684000B8FBCB
:101CC000F0F087B2042F00DA04273E4309F1010047
:101CD000208427E0E8884BF6FF71884206D1286807
:101CE00000EB4000B8FBF0F087B209E0286800EB99
:101CF000C00101EB0010B8FBF0F087B247F4804759
:101D0000C7F30B0008B947F0010747F4004006434A
:101D10004FF4967009FB00F04FF47A7190FBF1F0EC
:101D2000401C2084A683208840F001002080268863
:101D30004FF6F5300640A888698908430643268097
:101D4000A88929890843208105B0BDE8F0830000F7
:101D500000127A0040420F00A086010012B141F04B
:101D6000010102E04FF6FE731940018270470182C3
:101D70007047000000B58DB00F208DF830000320B3
:101D80008DF8310002208DF8320001208DF83300EB
:101D90000CA800F04FFA0121084600F0CFFB2048C4
:101DA000FFF7E8FC1E481430FFF7E4FC1D480190E3
:101DB0001D480290102003901420049000200590EC
:101DC0008020069000200790089009904FF4005062
:101DD0000A9000200B9001A91148FFF771FD1148EE
:101DE00001901148029000200390142004900020DC
:101DF00005908020069000200790089009904FF4ED
:101E000000500A9000200B9001A905481430FFF7FC
:101E100057FD012103481038FFF7E9FE0DB000BD62
:101E20006C000240105400408400002008B50121DD
:101E3000102000F0B3FB4FF40050ADF8000010206C
:101E40008DF8030003208DF8020069460448FFF76F
:101E5000BBFD4FF400510248FFF743FE08BD0000F0
:101E60000010014000BFFEE730B589B005460C46C2
:101E70000121084600F072FB0121042000F08EFBD6
:101E80000F20ADF8200004208DF8230008A93D485C
:101E9000FFF79AFD0F203B4914310860ADF8185048
:101EA000ADF814400020ADF81A00ADF8160005A9F1
:101EB0004FF0804001F0F6F80020ADF80400ADF8D6
:101EC00006000120ADF808000020ADF80A00ADF8CA
:101ED0000C0001A94FF0804000F0FCFE0420ADF89A
:101EE00004000020ADF806000120ADF80800002035
:101EF000ADF80A00ADF80C0001A94FF0804000F0E9
:101F0000E9FE0820ADF804000020ADF8060001202D
:101F1000ADF808000020ADF80A00ADF80C0001A9EA
:101F20004FF0804000F0D6FE0C20ADF804000020F9
:101F3000ADF806000120ADF808000020ADF80A0059
:101F4000ADF80C0001A94FF0804000F0C3FE1C204A
:101F50008DF8100001208DF8110000208DF812007E
:101F600001208DF8130004A800F064F901221F215C
:101F7000900700F005FF0121880700F09FFE09B0DF
:101F800030BD00000008014008B501211C2000F010
:101F900005FBF020ADF8000010208DF803000220B2
:101FA0008DF8020069461D48FFF70EFD4FF44060B2
:101FB000ADF8000010208DF8030002208DF802001B
:101FC00069461748FFF700FD4FF47040ADF8000078
:101FD00048208DF8030002208DF802006946104861
:101FE000FFF7F2FC4FF44040ADF8000010208DF8F0
:101FF000030002208DF8020069460A48FFF7E4FC5E
:10200000F0200649143108604FF44060044914314F
:10201000086000010349486108BD00000008014054
:10202000000C01400010014010B5FFF7ADFF012189
:102030004FF47A7000F01CF840F29F514CF250308F
:10204000FFF712FF41200649087042200549087039
:1020500043200549087044200449087010BD000061
:10206000A00100200002002060020020C002002029
:1020700030B589B005460C460121042000F06EFA07
:102080000121092000F08AFA4FF47070ADF82000A9
:1020900018208DF8230003208DF8220008A91F487E
:1020A000FFF792FCADF81850ADF814400020ADF8E1
:1020B0001A00ADF8160005A9194800F0F3FF7020CA
:1020C000ADF804000120ADF806000220ADF80C00C8
:1020D00001A9134800F05EFE01A9114800F0B0FE0E
:1020E00001A90F4800F00CFF01A90D4800F062FFA4
:1020F00008210B4800F09AFE0821094800F0F2FE82
:102100000821074800F04CFF0821054800F090FF27
:102110000121034800F0D2FD09B030BD000C0140A0
:102120000008004041291CD118B900223C4B1A80FC
:1021300075E0002809DD4FF400623A4B1A60521036
:102140001B1D1A60364B188069E04FF40062354B56
:102150001B1D1A6052101B1F1A604242304B1A801E
:102160005DE042291DD120B900222D4B1B1D1A8094
:1021700055E0002809DD10222B4B1A6020221B1D80
:102180001A60274B1B1D188049E01022264B1B1D8F
:102190001A6020221B1F1A604242214B1B1D1A800D
:1021A0003DE043291CD120B900221D4B08331A8081
:1021B00035E0002809DD4FF400421C4B1A61521033
:1021C0005A61174B0833188029E04FF40042174B2F
:1021D0005A6152101A614242114B08331A801EE0B4
:1021E00044291CD120B900220D4B0C331A8016E073
:1021F000002809DD40220C4B1A6080221B1D1A604A
:10220000074B0C3318800AE04022074B1B1D1A6055
:1022100080221B1F1A604242014B0C331A80704708
:1022200034080040100C014010080140001001402B
:102230007047000070B5002100230F22C47804B35A
:10224000154C246804F4E064C4F5E064210AC1F18B
:102250000403CA40447804FA03F18478144021430B
:1022600009010E4C0678A155047804F01F050124DD
:10227000AC4005786D11AD0005F1E025C5F80041D1
:1022800009E0047804F01F050124AC40044D0678F1
:10229000761145F8264070BD0CED00E000E400E04A
:1022A00080E100E070B5002418E004F1B0000021E6
:1022B00000F033F90021084600F02FF9002110202A
:1022C00000F02BF9002505E00121002000F025F9A0
:1022D000681CC5B2802DF7DB601CC4B2082CE4DB9F
:1022E00070BD10B50021AE2000F017F9002140208C
:1022F00000F013F90021B02000F00FF90021C820F0
:1023000000F00BF90021812000F007F900214020A6
:1023100000F003F90021A12000F0FFF80021A62021
:1023200000F0FBF80021A82000F0F7F800211F20A2
:1023300000F0F3F80021D32000F0EFF80021084668
:1023400000F0EBF80021D52000F0E7F80021F020A4
:1023500000F0E3F80021D92000F0DFF8002122206E
:1023600000F0DBF80021DA2000F0D7F8002102208D
:1023700000F0D3F80021DB2000F0CFF80021492045
:1023800000F0CBF800218D2000F0C7F800211420C8
:1023900000F0C3F80021AF2000F0BFF8FFF782FF84
:1023A00010BD70B504460D4605F1B000002100F0E7
:1023B000B4F8102141EA1410002100F0AEF804F046
:1023C0000F00002100F0A9F870BD00002DE9F047D2
:1023D00007460E469046994600250024A8F12000A5
:1023E000C5B27F2F02DD0027B01CC6B2B9F1100FB5
:1023F00024D131463846FFF7D4FF002408E004EB2F
:102400000511194A505C012100F087F8601CC4B224
:10241000082CF4DB701CC1B23846FFF7C2FF002461
:1024200009E004EB051108310F4A505C012100F06E
:1024300074F8601CC4B2082CF3DB12E03146384655
:10244000FFF7AFFF00240AE005EB4501074A02EB66
:102450004101085D012100F060F8601CC4B2062C47
:10246000F2DBBDE8F08700006C400008443E000845
:102470002DE9FF5F0646174698460E9C4FF0000A6E
:10248000002F0CDA7F4223462D2230460199FFF7B8
:102490009DFF204604EBD07106EB6101CEB2002512
:1024A00037E0A8EB0500401EC1B20A2001F07AFA1D
:1024B000B7FBF0F00A21B0FBF1F201FB1209BAF10F
:1024C000000F15D1A8F10100A84211DDB9F1000FEC
:1024D0000CD1A34604EBDB71491001FB0561C8B2C6
:1024E000234620220199FFF771FF10E04FF0010A07
:1024F000A34604EBDB71491001FB0561C8B209F189
:102500003001CAB223460199FFF760FF00BF681C83
:10251000C5B24545C5DBBDE8FF9F70B504460D4615
:102520002DB1E2B240213C20FFF7E0FA04E0E2B234
:1025300000213C20FFF7DAFA70BD704729B1064A46
:1025400052690243044B5A6104E0034A52698243D0
:10255000014B5A61704700000010024029B1064A41
:10256000D2690243044BDA6104E0034AD269824330
:10257000014BDA61704700000010024029B1064AA1
:1025800012690243044B1A6104E0034A1269824350
:10259000014B1A61704700000010024029B1064A41
:1025A00092690243044B9A6104E0034A92698243B0
:1025B000014B9A61704700000010024029B1064AA1
:1025C000D2680243044BDA6004E0034AD2688243D3
:1025D000014BDA60704700000010024030B5002166
:1025E0000022002400232D4D6D6805F00C0121B15F
:1025F000042905D0082923D105E0294D056022E0F2
:10260000274D05601FE0254D6D6805F47012234DC0
:102610006D6805F48034022505EB92421CB9214D0A
:10262000554305600BE01D4D6D6805F400351DB187
:102630001C4D5543056002E0194D5543056002E00D
:10264000174D056000BF00BF144D6D6805F0F00127
:102650000909154D6B5C0568DD4045600F4D6D68DF
:1026600005F4E061090A104D6B5C4568DD4085604A
:102670000A4D6D6805F46051C90A0B4D6B5C4568E5
:10268000DD40C560054D6D6805F44041890B074D7F
:102690006B5CC568B5FBF3F5056130BD0010024009
:1026A00000127A0000093D003100002041000020A6
:1026B000704710B500F002F810BD00000CB5002006
:1026C000019000903348006840F480303149086040
:1026D00000BF3048006800F4003000900198401CB2
:1026E0000190009818B90198B0F5A06FF1D1294870
:1026F000006800F4003010B10120009001E00020DB
:1027000000900098012843D12348006840F0100051
:10271000214908600846006820F003000860084668
:10272000006840F0020008601A4840681949486093
:102730000846406848600846406840F48060486049
:102740000846406820F47C1048600846406840F421
:10275000E81048600846006840F08070086000BFDC
:102760000C48006800F000700028F9D00948406863
:1027700020F00300074948600846406840F0020026
:10278000486000BF0348406800F00C000828F9D1F9
:102790000CBD0000001002400020024010B586B0C1
:1027A000002401210820FFF7F9FE4020ADF81400B5
:1027B00014208DF8170003208DF8160005A9254870
:1027C000FFF702F90FE040212248FFF78AF90A20BB
:1027D00001F03CF840211F48FFF781F90A2001F081
:1027E00035F8601CC4B20A2CEDDB1A48FFF788F8F4
:1027F00001214805FFF7B2FEC020ADF814001C20EF
:102800008DF8170003208DF8160005A91148FFF771
:10281000DBF81148FFF7F8F90020ADF80800ADF833
:102820000E004FF48040ADF810004BF6FF70ADF88D
:102830000A000A4801900120ADF80C0001A90648E1
:10284000FFF716FA01210448FFF7C5F9FFF792FADE
:1028500006B010BD000C014000540040E09304009D
:10286000042808D14FF0E021096941F004014FF03C
:10287000E022116107E04FF0E021096921F0040135
:102880004FF0E022116170477047000010B5134807
:10289000006840F00100114908600846406810498E
:1028A00008400E494860084600680E4908400B4938
:1028B00008600846006820F48020086008464068E8
:1028C00020F4FE0048604FF41F008860FFF7F1FE1F
:1028D0004FF000600449086010BD00000010024085
:1028E0000000FFF8FFFFF6FE08ED00E0F0B50C4633
:1028F000154600220021068C4FF6FE773E400684E6
:10290000028B018C4FF60C7632407E1C06EA0316D1
:102910002E433243104EB0420ED0104EB0420BD078
:10292000B0F1804F08D00E4EB04205D00D4EB042EF
:1029300002D00D4EB04206D14FF6FD76314044F044
:102940000106314305E04FF6F576314044F00106CB
:10295000314302830184F0BD002C0140003401406A
:102960000004004000080040000C0040F0B50C4698
:102970001546002200210026078C4FF6EF7C07EA5F
:102980000C070784028B018C4FF6FF7707EA0416C9
:1029900040F6FF473A404FF6FF7707EA03373A43DE
:1029A0004FF6FF7707EA05273A43114FB8420ED09A
:1029B000104FB8420BD0B0F1804F08D00E4FB84244
:1029C00005D00E4FB84202D00D4FB84206D14FF697
:1029D000DF77394046F01007394305E04FF65F775F
:1029E000394044F01007394302830184F0BD0000F0
:1029F000002C014000340140000400400008004069
:102A0000000C0040F0B50C461546002200210026BF
:102A1000078C4FF6FF6C07EA0C070784828B018C4A
:102A20004FF6FF7707EA04264FF60C773A404FF649
:102A3000FF7707EA03172F433A43114FB8420ED0EE
:102A4000104FB8420BD0B0F1804F08D00E4FB842B3
:102A500005D00E4FB84202D00D4FB84206D14FF606
:102A6000FF57394046F48077394305E04FF2FF576E
:102A7000394044F48077394382830184F0BD0000FB
:102A8000002C0140003401400004004000080040D8
:102A9000000C0040F0B50C4615460022002100262F
:102AA000078C4EF6FF7C07EA0C070784828B018CAB
:102AB0004FF6FF7707EA043640F6FF473A404FF6F5
:102AC000FF7707EA05273A434FF6FF7707EA033710
:102AD0003A43114FB8420ED0104FB8420BD0B0F16C
:102AE000804F08D00E4FB84205D00E4FB84202D0EA
:102AF0000D4FB84206D14DF6FF77394046F4805766
:102B0000394305E047F6FF57394044F480573943CD
:102B100082830184F0BD0000002C0140003401409C
:102B20000004004000080040000C004010B50020E8
:102B3000114908801148B0F90000002801DD01208A
:102B400000E000200D490988081A00B20B490880EE
:102B50000846008878B941210020FFF7E3FA4221B6
:102B60000020FFF7DFFA43210020FFF7DBFA4421C2
:102B70000020FFF7D7FA10BD102C01400C000020F8
:102B80004FF08040008A4449088044480068444926
:102B900008804148007800F0010068B14FF08040A3
:102BA000008A00204FF0804108823E4800684CF2C5
:102BB000503108443B49086037480078C0F3400072
:102BC000B0B14FF08040808E3649096808443649DC
:102BD000886233480088C0F3003020B90846806B13
:102BE000401C886304E03048806B401E2E49886397
:102BF00029480078C0F38000B0B14FF08040008FCA
:102C00002849096808442949886225480088C0F392
:102C1000403020B90846806B401E886304E023489A
:102C2000806B401C214988631B480078C0F3C000BA
:102C3000B0B14FF08040808F1A49096808441C49A0
:102C4000886217480088C0F3803020B10846806B46
:102C5000401E886304E01648806B401C144988635A
:102C60000D480078C0F30010A0B1124800880D494B
:102C7000096808441049886209480088C00B20B9D7
:102C80000846806B401E886304E00B48806B401C44
:102C9000094988637047000068000020080C014063
:102CA0006A0000206C000020A0010020000200202B
:102CB0006002002040000040C002002021B10288D4
:102CC00042F00102028004E002884FF6FE731A40CF
:102CD0000280704770B505460C46244885420ED0E8
:102CE000234885420BD0B5F1804F08D0214885425A
:102CF00005D02148854202D02048854200D100E01D
:102D000000BF208850B92389A28861882846FFF730
:102D1000EDFDE188284600F098F925E02088042898
:102D20000AD12389A28861882846FFF71FFEE1881F
:102D3000284600F093F917E0208808280AD1238953
:102D4000A28861882846FFF75DFEE188284600F0EA
:102D500092F909E02389A28861882846FFF79AFE44
:102D6000E188284600F090F970BD0000002C014079
:102D7000003401400004004000080040000C004006
:102D80001AB183890B43838102E083898B4383815A
:102D90007047000070B5002400220023058C4FF618
:102DA000FE7635400584028C8388048B4FF68F7540
:102DB0002C40B51E2C400D882C43751E2A400D89D1
:102DC0002A434D882A43144DA8420BD0134DA842E4
:102DD00008D0134DA84205D0124DA84202D0124D82
:102DE000A84213D14FF6F7752A404D892A434FF672
:102DF000FB752A408D882A434FF6FF652B404FF61E
:102E0000FF552B408D892B43CD892B438380048331
:102E1000CD888586028470BD002C014000340140BD
:102E20000040014000440140004801400A460021A2
:102E3000018B4FF6F773194011430183704700006F
:102E400070B5002400220023058C4FF6EF76354044
:102E50000584028C8388048B48F6FF752C404FF65E
:102E6000FF452C400D884FF6FF7606EA05252C43DA
:102E70004FF6DF752A400D8906EA05152A434D886D
:102E800006EA05152A43154DA84202D0144DA84262
:102E90001DD14FF67F752A404D894FF6FF7606EA21
:102EA00005152A434FF6BF752A408D8806EA051599
:102EB0002A434FF6FF352B404FF2FF752B408D898B
:102EC00006EA85052B43CD8906EA85052B438380D9
:102ED0000483CD880587028470BD0000002C01406A
:102EE000003401400A460021018B4FF2FF73194064
:102EF0004FF6FF7303EA0223194301837047000072
:102F000070B5002400220023058C4FF6FF66354083
:102F10000584028C8388848B4FF68F752C404FF686
:102F2000FC752C400D882C434FF6FF552A400D8927
:102F30004FF6FF7606EA05252A434D8806EA052561
:102F40002A43154DA84202D0144DA8421DD14FF27C
:102F5000FF752A404D894FF6FF7606EA05252A437C
:102F60004FF6FF352A408D8806EA05252A434EF69E
:102F7000FF752B404DF6FF752B408D8906EA051530
:102F80002B43CD8906EA05152B4383808483CD88A6
:102F90008587028470BD0000002C01400034014090
:102FA0000A460021818B4FF6F77319401143818344
:102FB0007047000070B5002200230024058C4EF6F7
:102FC000FF7635400584038C8488828B48F6FF7534
:102FD0002A404FF6FF452A400D884FF6FF7606EA55
:102FE00005252A434DF6FF752B400D8906EA053568
:102FF0002B434D8806EA05352B430B4DA84202D0E2
:103000000A4DA84208D14BF6FF752C408D894FF62A
:10301000FF7606EA85152C4384808283CD88A0F84C
:103020004050038470BD0000002C0140003401407A
:103030000A460021818B4FF2FF7319404FF6FF7350
:1030400003EA0223194381837047028B4FF6F3731F
:103050001A400283028B0A4302837047028B4FF2AD
:10306000FF331A400283028B4FF6FF7303EA0123FA
:103070001A4302837047828B4FF6F3731A408283A0
:10308000828B0A4382837047828B4FF2FF331A4050
:103090008283828B4FF6FF7303EA01231A438283F4
:1030A00070470000002202881D4B98420ED01D4B35
:1030B00098420BD0B0F1804F08D01B4B984205D0FE
:1030C0001A4B984202D01A4B984204D14FF68F7394
:1030D0001A404B881A43174B984207D0164B984218
:1030E00004D04FF6FF431A40CB881A4302808B88E6
:1030F00083850B8803850A4B98420BD0094B984275
:1031000008D00E4B984205D00D4B984202D00D4B83
:10311000984201D10B7A0386012383827047000015
:10312000002C014000340140000400400008004031
:10313000000C00400010004000140040004001401E
:10314000004401400048014010B50024664800F0EA
:10315000B7FAC4B2A021644800F00CFA0A2063490F
:1031600008801CB900206249087007E060480178B7
:103170000078401C5E4A10705E4844545C480078F9
:10318000072802DB00205A490870594800780428B3
:1031900023DB584800787A287DD156484078564934
:1031A000087008460078662818D141215348B0F9C4
:1031B0000000FEF7B7FF42215048B0F90000FEF7CB
:1031C000B1FF43214D48B0F90000FEF7ABFF4421A9
:1031D0004A48B0F90000FEF7A5FF84E046480078B1
:1031E00062281CD1412145480088404200B2FEF7C8
:1031F00099FF422141480088404200B2FEF792FF09
:1032000043213E480088404200B2FEF78BFF442134
:103210003A480088404200B2FEF784FF63E0364837
:1032200000786C281AD1412134480088404200B20D
:10323000FEF778FF42213148B0F90000FEF772FF37
:1032400043212E48B0F90000FEF76CFF44212B48C3
:103250000088404200B2FEF765FF44E0264800784F
:10326000722840D141212548B0F90000FEF75AFFED
:10327000422122480088404200B2FEF753FF43211A
:103280001E480088404200B2FEF74CFF44211B4814
:10329000B0F9000000E002E0FEF744FF23E015482B
:1032A000007873281FD113484078302806D0312881
:1032B00008D032280BD0332813D10DE000200F495D
:1032C00008800FE04FF496700C4908800AE04FF434
:1032D00016700A49088005E04FF4617007490880BC
:1032E00000E000BF00BF10BD003801400C0000200E
:1032F0002C00002098000020300000202E0000202C
:1033000070B59348406B192812D2924800889148B2
:10331000001D00888E48006B00F0FE008C49086399
:10332000C82048630846006B40F00100086370BD88
:103330008948C06880F400508749C86000208749E8
:10334000087000BF854801780078401C834A1070DF
:103350008348405C4E28F5D1814912781144481CBD
:10336000FCF762FF00B27F49888500BF7B48017887
:103370000078401C794A10707948405C242803D0BA
:1033800010460078C728F1DB74480078C72800D1C0
:10339000CDE7734971480078801D085C303800EB38
:1033A0008000082101EB40016D4A6C480078C01D87
:1033B000105C303808446B4908700846007809787A
:1033C000182901DB182100E00021401A6549087026
:1033D0006349624800780930085C30380A465F4922
:1033E00009780831515C303901EB810100EB410073
:1033F0005C4948701146594800780B30085C3038F9
:10340000564909780A31515C303901EB810100EBF2
:103410004100544988705148007810304F49087075
:1034200000205149087011464C4A1278881800F063
:10343000D5F9044600F03EFB4A49086200204A499B
:10344000087000BF454801780078401C434A10705E
:103450004348405C2C28F5D100BF404801780078F3
:10346000401C3E4A10703E48405C2C28F5D13C4937
:103470001278881800F0B2F9044600F01BFB3949B5
:10348000486200BF354801780078401C334A10700C
:103490003348405C2C28F5D100BF304801780078D3
:1034A000401C2E4A10702E48405C2C28F5D100BFDD
:1034B0002A4801780078401C284A10702848405C4F
:1034C0002C28F5D1264912788818FCF7ADFE25493D
:1034D00081F8280000BF214801780078401C1F4A6D
:1034E00010701F48405C2C28F5D100BF1B480178A4
:1034F0000078401C194A10701948405C2C28F5D1FE
:10350000174912788818FCF78FFE00B215494885D4
:103510000F48006B00F0FE000D490863C8204863A7
:103520000846006B40F00100086301200E49087056
:103530000E48006800EB40000D49086000200B4970
:103540000860044800880348001D008800BFEEE6BC
:1035500000000240004800400010014046000020EA
:10356000D4000020A4000020470000200400002018
:103570000800002001F40072B2F5007F00D100BF06
:10358000CA430280704721B1828942F4005282818D
:1035900004E082894DF6FF731A4082817047F0B5CE
:1035A0000346002400260025002040F66A17B94291
:1035B00000D100BF1846C1F3421401F01F060127D5
:1035C00007FA06F5012C01D10C3004E0022C01D1E0
:1035D000103000E014301AB107682F43076002E092
:1035E0000768AF430760F0BD2DE9F04786B0054698
:1035F0000E460024A24600BFA1460027B08900B1B4
:1036000000BF2F462C8A4CF6FF700440F08804431C
:103610002C82AC894EF6F3100440B08831890843FF
:10362000718908430443AC81AC8A4FF6FF400440E3
:10363000B0890443AC8201A8FEF7D0FF1F4887423F
:1036400002D1DDF810A001E0DDF80CA0A88900F49B
:10365000004040B10AEBCA0000EB0A103168490093
:10366000B0FBF1F807E00AEBCA0000EB0A10316882
:103670008900B0FBF1F86420B8FBF0F004012009E8
:10368000642101FB1089A88900F4004040B1322078
:1036900000EBC900B0FBF1F000F00700044308E0C4
:1036A000322000EB09106421B0FBF1F000F00F00B4
:1036B00004432C8106B0BDE8F087000000380140CB
:1036C00001468888C0F30800704700BFFEE740F25B
:1036D000013200204FF0E04100F068BB024A0020B8
:1036E000110700F063BB000001FDFFFF10B50446A9
:1036F000D1E9000100F002F8206010BDF8B50446E1
:103700000D466A4600F0C8F800987E300090002808
:103710001EDC002213462046294600F011FA17D07D
:10372000002140F608004FF00000064620462946DA
:1037300000F0C0F9044640F6080006EA00014FF028
:10374000000034F0004004BF0220FCF786FD29E0B1
:103750000098FF2828DB002108464FF0000000F405
:103760004006002213462046294600F0AFFA8CBFDF
:10377000002501250220FCF770FD4FF0FF4446B103
:10378000002D0CBF4FF400004FF48000B04218BF72
:10379000084C042108464FF00000002D04BF84F0BF
:1037A0000040F8BD2046F8BD20462946BDE8F84057
:1037B00000F080B9FFFF7F7F10B504460A46D4E9C8
:1037C0000003194600F094F8C4E9000110BD303838
:1037D0000A2801D2012070470020704730B583B01D
:1037E0000446FCF735FD05460020CDE90000024601
:1037F00021466846FCF756FD2846FCF72EFDDDE91C
:10380000000103B030BD000010B56FF00400FFF7F9
:1038100027F80A4800680A49B0FBF1F00949087026
:103820000846007800EB4001C1EBC0104FF6FF7175
:1038300001EAC0000449088010BD00001400002007
:1038400000127A00280000202A0000200146114AB8
:1038500012784A434FF0E0235A6100229A611A46D7
:10386000126942F001021A6100BF4FF0E0221069B4
:1038700000F001021AB100F48032002AF5D04FF0B6
:10388000E022126922F001024FF0E0231A610022C7
:103890009A6170472800002010B51446002222606B
:1038A000114A21F000439342A8BF10BD53EA000221
:1038B00008BF10BDB3F5801FA8BF226807DA362203
:1038C00000F074FA6FF0350221F000432260DFF857
:1038D0001CC06FF31E510CEB23531A4441F0FF51EF
:1038E00041F00051226010BD0000F07F02FCFFFF9C
:1038F0002DE9F04106460C4640F2FF75174635EAC1
:1039000014502BD000221346304600F019F925D070
:103910003A463046214600F049FA06460C4635EA5A
:10392000145010D000221346304600F009F915D18A
:103930000220FCF792FCFFF7D1FE0A46214662F313
:103940001E01BDE8F0810220FCF787FCFFF7BFFEF7
:103950000A46214662F31E01BDE8F0813046214649
:10396000BDE8F08108B5FEF761FAFFF74DFFFEF7FD
:1039700015FF4FF4964000F021F8FEF755FBFEF7D7
:10398000B0FC0CE010200090054802680068401C64
:10399000034B1860062300210846FEF769FDF1E796
:1039A0001000002010B50246012000E050430B1E1D
:1039B000A1F10104E1B2F9D110BD000010B586B04B
:1039C0000446012144F20400FEF7E8FD4FF40070C4
:1039D000ADF8140003208DF8160018208DF817009C
:1039E00005A91C48FDF7F0FF4FF48060ADF8140006
:1039F00048208DF8170005A91648FDF7E5FF25209A
:103A00008DF8000003208DF801008DF802000120E0
:103A10008DF803006846FEF70DFC01940020ADF818
:103A20000800ADF80A00ADF80C00ADF810000C204D
:103A3000ADF80E0001A90848FFF7D6FD012240F2BB
:103A400025510548FFF7ABFD01210348FFF79BFD1A
:103A500006B010BD000801400038014010B5002933
:103A60000AD00878002807D005487844FCF7C8FF3A
:103A7000002801D0002010BD0248784410BD00008D
:103A8000B60C0000AE0C000010B500290AD0087872
:103A9000002807D005487844FCF7B2FF002801D081
:103AA000002010BD0248784410BD0000A60C0000A4
:103AB0009E0C000021F00042A2F16052B2F5801F7E
:103AC00001F0004328BFD2F17F6C0BD95FEA001CE4
:103AD00043EAC20242EB507018BF704728BF20F083
:103AE00001007047B2F5801FBCBF184670474FEA0F
:103AF000410C1CF5001F02D2084600F01DB970B53C
:103B000000F096F800000089FFF7F6BF4FF0004084
:103B1000A0F580007047000002494FF0000000F05F
:103B200013B900BF0000F87F491058BFC1F14041F0
:103B30005B1058BFC3F140438B42EFF300807047E6
:103B400051EA030C17D41CF5801F58BFBCF5801F29
:103B500000F10680994218BF704708BF9042704735
:103B600007D711F5801F58BF13F5801F19D499424C
:103B70007047894270471CF5801F08D5BCF5801F2F
:103B8000F7D58B4218BF704708BF824270474FF489
:103B9000001C1CEB410F38BF1CEB430F01D28B42C2
:103BA000704770B500F044F8922449004FF000517E
:103BB0004FF08053FFF7B8BF51EA030C17D41CF540
:103BC000801F58BFBCF5801F00F10680994218BFC6
:103BD000704708BF9042704707D711F5801F58BF44
:103BE00013F5801F19D499427047894270471CF51C
:103BF000801F08D5BCF5801FF7D58B4218BF7047D2
:103C000008BF824270474FF4001C1CEB410F38BFC5
:103C10001CEB430F01D28B42704770B500F008F8DF
:103C2000922449004FF000514FF08053FFF77CBFC2
:103C30000EF1020E2EF0030E5EF8046B364205D430
:103C4000012A43EB030515F5001F12D8012841EBAB
:103C5000010C1CF5001F0CD80ED14FEAD17C15F5D4
:103C6000001F0CEB4C0C0CF1020C08BF4CEBD37C8E
:103C700004E04FF0080C01E04FEAD37C0CEB4C055C
:103C800026FA05F606F00706B6F1040C06D20EEB8E
:103C9000860CBDE870404CF0010C6047DFE80CF08A
:103CA000090B02024FF000414FF00000A1F5002186
:103CB00070BD19461046012851EB010418BFD4F518
:103CC000001484BF002001F0004170BD53EA010CD4
:103CD00017D41CF5801F58BFBCF5801F00F106806B
:103CE0008B4218BF704708BF8242704707D713F551
:103CF000801F58BF11F5801F19D48B4270479B421B
:103D000070471CF5801F08D5BCF5801FF7D5994278
:103D100018BF704708BF904270474FF4001C1CEB5F
:103D2000430F38BF1CEB410F01D2994270470FB4CB
:103D30000CBC03BCFFF771BFFF2141EAD050C005A6
:103D400070474FF0000070470CF00F03092B08BFBD
:103D5000082000F05F800A2B0BD0082B18BF70479B
:103D600008BF1CF0400F0AD04FF000004FF00001D8
:103D700070471CF0400F18BF4FF0004070471CF018
:103D8000100F08D020F0704300F07F4242EAD301C8
:103D90004FEA4370704700F0604021F07F4242EAF2
:103DA000000201F07F4040EA727070474FF0FF0C54
:103DB0004CF4E06C1CEA11531CBF9CEA030C9445C4
:103DC000C2BFDA4201EB02517047002B0DD0BCF1AB
:103DD000000F0FD0002A01F00041A4BF41F0E041E4
:103DE00041F07F614FF00000704701F000414FF05B
:103DF0000000704750EA01334FF09B0C18BF4CF0A5
:103E0000806C7FF489AE7047FCF79ABCFCF7AABEC1
:103E1000FDF738B81CF4801F11D01CF4E02F03D03C
:103E20006FEACC31490070474FF04050EFF3008209
:103E300022F0704242EA000282F3008870474FF09D
:103E4000000070470000000000000000002F00008C
:103E500000000700070000147F147F1400242A7F4D
:103E60002A120062640813230036495522500000CC
:103E70000503000000001C224100000041221C003C
:103E80000014083E08140008083E0808000000A0BE
:103E900060000008080808080000606000000020BA
:103EA00010080402003E5149453E0000427F400098
:103EB000004261514946002141454B31001814121E
:103EC0007F10002745454539003C4A4949300001EB
:103ED0007109050300364949493600064949291E3A
:103EE000000036360000000056360000000814229C
:103EF000410000141414141400004122140800029C
:103F00000151090600324959513E007C1211127CC0
:103F1000007F49494936003E41414122007F4141ED
:103F2000221C007F49494941007F09090901003EDF
:103F30004149497A007F0808087F0000417F41001D
:103F4000002040413F01007F08142241007F404093
:103F50004040007F020C027F007F0408107F003E7B
:103F60004141413E007F09090906003E4151215E61
:103F7000007F091929460046494949310001017F5E
:103F80000101003F4040403F001F2040201F003FF4
:103F90004038403F006314081463000708700807A6
:103FA00000615149454300007F41410000552A55B9
:103FB0002A55000041417F00000402010204004034
:103FC0004040404000000102040000205454547856
:103FD000007F484444380038444444200038444476
:103FE000487F00385454541800087E090102001814
:103FF000A4A4A47C007F080404780000447D400051
:10400000004080847D00007F102844000000417F34
:104010004000007C04180478007C08040478003810
:104020004444443800FC242424180018242418FC98
:10403000007C0804040800485454542000043F4401
:104040004020003C4040207C001C2040201C003CC4
:104050004030403C004428102844001CA0A0A07C14
:10406000004464544C44141414141414000000004C
:10407000000000000000000000000000000000F848
:1040800000000000000000333000000000100C06AB
:10409000100C0600000000000000000040C0784046
:1040A000C0784000043F04043F040400007088FC12
:1040B00008300000001820FF211E0000F008F0006A
:1040C000E018000000211C031E211E0000F00888DB
:1040D000700000001E2123241927211010160E0045
:1040E000000000000000000000000000000000E0F0
:1040F0001804020000000007182040000002041805
:10410000E00000000040201807000000404080F060
:10411000804040000202010F01020200000000F096
:10412000000000000101011F01010100000000006A
:104130000000000080B070000000000000000000DF
:104140000000000000010101010101010000000068
:1041500000000000003030000000000000000000FF
:1041600080601804006018060100000000E01008DC
:104170000810E000000F102020100F00001010F8B1
:10418000000000000020203F2020000000700808F0
:104190000888700000302824222130000030088870
:1041A000884830000018202020110E000000C02098
:1041B00010F8000000070424243F240000F80888B9
:1041C000880808000019212020110E0000E0108846
:1041D00088180000000F112020110E000038080878
:1041E000C83808000000003F000000000070880888
:1041F00008887000001C222121221C0000E0100809
:104200000810E0000000312222110F00000000C061
:10421000C0000000000000303000000000000080FE
:1042200000000000000080600000000000008040EE
:104230002010080000010204081020004040404007
:10424000404040000404040404040400000810205A
:10425000408000000020100804020100007048089F
:104260000808F0000000003036010000C030C82807
:10427000E810E0000718272423140B000000C038C2
:10428000E0000000203C23020227382008F888883C
:1042900088700000203F202020110E00C030080848
:1042A00008083800071820202010080008F808081F
:1042B0000810E000203F202020100F0008F8888818
:1042C000E8081000203F20202320180008F88888E4
:1042D000E8081000203F200003000000C03008085C
:1042E0000838000007182020221E020008F80800E5
:1042F0000008F808203F210101213F20000808F8AC
:10430000080800000020203F2020000000000808CE
:10431000F8080800C08080807F00000008F888C08E
:1043200028180800203F20012638200008F808003F
:1043300000000000203F20202020300008F8F80076
:10434000F8F80800203F003F003F200008F830C088
:104350000008F808203F200007183F00E010080878
:104360000810E0000F10202020100F0008F80808A7
:104370000808F000203F210101010000E0100808BA
:104380000810E0000F18242438504F0008F88888DF
:1043900088887000203F2000030C302000708808BF
:1043A000080838000038202121221C00180808F8CD
:1043B000080818000000203F2000000008F808004E
:1043C0000008F808001F202020201F00087888001F
:1043D00000C83808000007380E010000F80800F88F
:1043E0000008F800033C0700073C03000818688039
:1043F0008068180820302C03032C30200838C800AF
:10440000C83808000000203F2000000010080808FD
:10441000C83808002038262120201800000000FE9F
:10442000020202000000007F40404000000C30C04B
:1044300000000000000000010638C0000002020277
:10444000FE000000004040407F0000000000040229
:104450000202040000000000000000000000000054
:104460000000000080808080808080800002020444
:10447000000000000000000000000000000080803C
:10448000808000000019242222223F2008F80080AA
:1044900080000000003F112020110E00000000806D
:1044A00080800000000E11202020110000000080FC
:1044B0008088F800000E112020103F20000080802E
:1044C00080800000001F222222221300008080F042
:1044D000888888180020203F20200000000080806D
:1044E00080808000006B94949493600008F80080B2
:1044F00080800000203F210000203F20008098980D
:10450000000000000020203F20200000000000806C
:104510009898000000C08080807F000008F80000AC
:1045200080808000203F24022D302000000808F801
:10453000000000000020203F2020000080808080BC
:1045400080808000203F20003F20003F808000804E
:1045500080800000203F210000203F20000080805C
:1045600080800000001F202020201F00808000800D
:104570008000000080FFA12020110E0000000080BC
:1045800080808000000E112020A0FF8080808000AD
:104590008080800020203F212000010000008080DA
:1045A000808080000033242424241900008080E0CF
:1045B000808000000000001F20200000808000009C
:1045C00000808000001F202020103F20808080007D
:1045D0000080808000010E3008060100808000808D
:1045E000008080800F300C030C300F0000808000B2
:1045F000808080000020312E0E31200080808000DD
:104600000080808080818E7018060100008080808C
:10461000808080000021302C22213000000000002A
:10462000807C020200000000003F404000000000CB
:10463000FF00000000000000FF0000000002027CFC
:10464000800000000040403F000000000006010123
:10465000020204040000000000000000024000000C
:10466000000000A00000000005400000000000C89D
:10467000000000000C4000000000409C0000000012
:10468000194000000020BCBE0000000034400000C3
:10469000BFC91B8E00000004B5400000504BCFD0B6
:1046A0006607E2CF010000006C4100003E8251AA83
:1046B000DFEEA73401000000D9420000DCB5A0E223
:1046C0003A301F97FFFFFFFFB4450000FD25A0C84B
:1046D000E9A3C14FFFFFFFFFFF3F00000000008084
:1046E00000000000FF3F000000000080000000000C
:1046F0004C48000800000020700000006C01000819
:10470000BC48000870000020100900008801000863
:10471000000000000000F07FFFFFFFFFFFFFEF7FC2
:104720001C00000043000000F8FFFFFF0C00000029
:104730000E0000000F0000002E000000100100001D
:1047400043000000F8FFFFFF004040404040404071
:104750004040414141414140404040404040404054
:1047600040404040404040404005020202020202F8
:104770000202020202020202022020202020202047
:10478000202020020202020202029090909090905B
:104790001010101010101010101010101010101019
:1047A000101010100202020202028888888888888D
:1047B0000808080808080808080808080808080879
:1047C0000808080802020202400000000000000081
:1047D00000000000000000000000000000000000D9
:1047E00000000000000000000000000000000000C9
:1047F00000000000000000000000000000000000B9
:1048000000000000000000000000000000000000A8
:104810000000000000000000000000000000000098
:104820000000000000000000000000000000000088
:104830000000000000000000000000000000000078
:104840000000000000000000000000000000000068
:104850000000000000000000000000000000000058
:1048600000A24A040000000000000000010203044E
:10487000060708090000000000002C0100000000ED
:1048800000010203040102030406070809020406EA
:1048900008000000333333333333C33F00000000DC
:1048A00000000000000000000000F03F00000000D9
:0C48B000000000000000000000000000FC
:04000005080001E905
:00000001FF
