:020000040800F2
:10000000980700206D0A0008790200087B020008AA
:100010007F02000883020008870200080000000039
:100020000000000000000000000000008B0200083B
:100030008D020008000000008F02000891020008F5
:10004000870A0008870A0008870A0008870A00084C
:10005000870A0008870A0008870A0008870A00083C
:10006000870A0008870A0008870A0008870A00082C
:10007000870A0008870A0008870A0008870A00081C
:10008000870A0008870A0008870A0008870A00080C
:10009000870A0008870A0008870A0008870A0008FC
:1000A000870A0008870A0008870A0008870A0008EC
:1000B000870A0008AD040008870A0008870A0008BC
:1000C000870A0008870A0008870A0008870A0008CC
:1000D000870A0008E3090008870A0008870A000861
:1000E000870A0008870A0008870A0008870A0008AC
:1000F000870A0008870A0008870A0008870A00089C
:10010000870A0008870A0008870A0008870A00088B
:10011000870A0008870A0008870A0008870A00087B
:10012000870A0008870A0008870A0008870A00086B
:1001300000F002F800F03AF80AA090E8000C8244BF
:100140008344AAF10107DA4501D100F02FF8AFF29C
:10015000090EBAE80F0013F0010F18BFFB1A43F0A5
:1001600001031847442A0000642A0000103A24BF03
:1001700078C878C1FAD8520724BF30C830C144BF0C
:1001800004680C607047000000230024002500264E
:10019000103A28BF78C1FBD8520728BF30C148BFEA
:1001A0000B6070471FB51FBD10B510BD02F083F97D
:1001B0001146FFF7F7FF00F009F802F0A1F903B4C8
:1001C000FFF7F2FF03BC00F0B1FB000000F052F9B2
:1001D00000F042FB00F010FB4FF47A7000F079FB66
:1001E0002049002000F0A3FA3BE0642000F071FBFE
:1001F0001D480078401C1C4908700846007820B94A
:100200001A49012000F093FA2BE0174800781E28C5
:1002100004D11749022000F08AFA22E0124800783F
:100220003C2804D11249032000F081FA19E00E485D
:1002300000785A2804D10F49012000F078FA10E024
:1002400009480078782804D10A49022000F06FFAA2
:1002500007E005480078962803D10449032000F000
:1002600066FAC2E700008C42050000200000F04161
:100270000000F0C1000020C1704700BFFEE700BFD2
:10028000FEE700BFFEE700BFFEE77047704770471C
:10029000704700000CB50020019000906C48006889
:1002A00040F480306A49086000BF6948006800F483
:1002B000003000900198401C0190009818B90198F6
:1002C000B0F5A06FF1D16248006800F4003010B1C1
:1002D0000120009001E0002000900098012843D107
:1002E0005C48006840F010005A4908600846006801
:1002F00020F0030008600846006840F00200086033
:10030000534840685249486008464068486008467B
:10031000406840F4806048600846406820F47C10E3
:1003200048600846406840F4E810486008460068A5
:1003300040F08070086000BF4548006800F0007021
:100340000028F9D04248406820F003004049486046
:100350000846406840F00200486000BF3C484068E2
:1003600000F00C000828F9D10CBD10B5FFF792FF82
:1003700010BD10B53648006840F0010034490860EF
:1003800008464068344908403149486008460068DA
:10039000324908402E4908600846006820F4802051
:1003A00008600846406820F4FE0048604FF41F00D3
:1003B0008860FFF7DAFF4FF000602949086010BD40
:1003C00010B5002100200022214B5B6803F00C01D6
:1003D00021B1042906D0082928D107E0214B224C5D
:1003E000236027E01F4B204C236023E0184B5B6801
:1003F00003F47010164B5B6803F48032022303EBA6
:10040000904022B9194B4343174C23600DE0104B29
:100410005B6803F4003323B1144B4343124C236055
:1004200003E0104B4343104C236003E00D4B0E4C94
:10043000236000BF00BF064B5B68C3F303130C4C83
:10044000E15C094B1B68CB40074C236010BD0000EA
:1004500000100240002002400000FFF8FFFFF6FEFF
:1004600008ED00E000127A000800002000093D00BD
:100470000C00002008B50121102000F0A1FE4FF46F
:100480000050ADF8000010208DF8030003208DF817
:1004900002006946044800F0D7FB4FF400510248BF
:1004A00000F07FFC08BD00000010014010B50121E4
:1004B000504801F0E2FD18B101214E4801F0EEFD77
:1004C0004D488068401C4C498860886800EBD071BA
:1004D0004910A0EB4101494A116000F099F810BDA4
:1004E00030B589B005460C460121062000F075FEA6
:1004F0000121092000F064FE0121414800F075FC53
:100500000121404800F071FC4FF47C70ADF82000F0
:1005100018208DF8230003208DF8220008A93A48FE
:1005200000F092FBADF81850ADF814400020ADF883
:100530001A00ADF8160005A92E4800F079FF05A9AC
:10054000324800F075FF012211462A4801F0E7FA0F
:100550001D208DF8000000208DF8010003208DF88B
:10056000020001208DF80300684600F0A4FA702014
:10057000ADF804000120ADF806000220ADF80C0033
:1005800001A9224800F091FF01A9204800F0CFFF07
:1005900001A91E4801F018F801A91C4801F05FF8F4
:1005A00001A9144800F081FF01A9124800F0BFFF23
:1005B0000821164801F0C8FB0821144801F0CDFBC2
:1005C0000821124801F0D6FB0821104801F0DBFB9E
:1005D0000821084801F0B8FB0821064801F0BDFBDE
:1005E0000121044801F080FA0121084801F07CFA59
:1005F00009B030BD0004004044000020B401224294
:1006000000081A0000013000000C01400008004002
:1006100010B5002464E0032C06DD894830F814107E
:100620000C3020F8141059E0854830F814100C30C4
:1006300030F81400814251D0814830F814100C3049
:1006400030F81400814225DA7D480C3030F814105F
:100650000C3830F81400091A79481830005D401D34
:1006600081420ADA76480C3030F81400401E81B21C
:1006700073480C3020F8141030E071480C3030F81A
:1006800014100C30005D081A81B26D480C3020F84F
:10069000141023E06A4830F814100C3030F81400BD
:1006A000091A67481830005D401D81420ADA644823
:1006B0000C3030F81400401C81B261480C3020F836
:1006C00014100BE05E480C3030F814100C30005D54
:1006D000084481B25A480C3020F81410601CC4B28F
:1006E000062C98DB5648801EC189564801F096FCBE
:1006F0005348801E018A544801F094FC5048801EE3
:10070000418A504801F088FC4D48801E818A4E483D
:1007100001F084FC4A48801EC18A4B4801F080FCED
:100720004748801E018B484801F076FC10BD2DE93A
:10073000FF5F82468B46454911F90A0001F0C3FF6D
:1007400004460D46584602F0BDF980464FF055323A
:100750003F4B01F0CFFF00223E4BCDE9000101F0FD
:10076000DDFE064622462B4601F0D8FECDE9020109
:1007700001F07CFF81B2324820F81A10BAF1050F5F
:100780001DD130F81A00B0F57A7F02DD4FF47A708F
:1007900002E02B4830F81A002949891E8881881CFC
:1007A00030F81A00B0F5E17F02DA4FF4E17002E0B0
:1007B000234830F81A002249891E88811AE020480F
:1007C00030F81A00B0F5966F02DD4FF4966102E042
:1007D0001B4830F81A101A4820F81A1030F81A007E
:1007E000C82801DAC82002E0154830F81A00144978
:1007F00021F81A00BDE8FF9F10B50024072010491A
:10080000891E887605210E48801EC1760D2101774C
:1008100014214177902142F20F70FFF761FE0BE047
:100820004FF42F7106480C3020F814100021204698
:10083000FFF77DFF601CC4B2062CF1DB10BD000089
:100840005200002000040040000800401C0000206E
:100850005555154000E0854010B56FF0040000F0DC
:1008600074F92E4800682E49B0FBF1F02D4908704C
:100870000846007800EB4001C1EBC0104FF6FF7155
:1008800001EAC0002849088010BD0146254A1278B7
:100890004A434FF0E0235A6100229A611A461269D6
:1008A00042F001021A6100BF4FF0E022106900F02F
:1008B00001021AB100F48032002AF5D04FF0E02294
:1008C000126922F001024FF0E0231A6100229A61BE
:1008D00070470146144A12884A434FF0E0235A6198
:1008E00000229A611A46126942F001021A6100BFA1
:1008F0004FF0E022106900F001021AB100F48032DA
:10090000002AF5D04FF0E022126922F001024FF0E8
:10091000E0231A6100229A6170470000080000205D
:1009200000127A002400002026000020014600BFAB
:10093000704700BF494A128802F04002002AF9D0ED
:10094000C2B2464B1B1D1A80704710B586B00446D4
:10095000012144F2040000F033FC4FF40070ADF8C4
:10096000140003208DF8160018208DF8170005A933
:100970003B4800F069F94FF48060ADF814000420A2
:100980008DF8170005A9364800F05EF925208DF88E
:10099000000003208DF801008DF8020001208DF881
:1009A0000300684600F087F801940020ADF80800C5
:1009B000ADF80A00ADF80C00ADF810000C20ADF851
:1009C0000E0001A9254801F0B0FB012240F225519B
:1009D000224801F042FC0121204801F032FC06B01F
:1009E00010BD10B540F225511C4801F01BFD10B39D
:1009F0001A4801F097FCC4B21A48008800F400407D
:100A0000C8B91848008800F4804060B10A2C03D0AF
:100A100000201449088020E01248008840F400407B
:100A20001049088019E00D2C06D10E48008840F4CA
:100A300080400C49088010E00A480088C0F30D008F
:100A400009490C5407480088401C0649088008469C
:100A50000088C72801DD0020088010BD0038014053
:100A6000000801402C000020700000200948804749
:100A700009480047FEE7FEE7FEE7FEE7FEE7FEE780
:100A8000FEE7FEE7FEE7FEE704480549054A064B98
:100A9000704700007303000831010008980100202E
:100AA0009807002098030020980300203149014353
:100AB000314A1160704770B5002100230F22C478BD
:100AC00004B32D4C246804F4E064C4F5E064210A06
:100AD000C1F10403CA40447804FA03F18478144055
:100AE00021430901254C0678A155047804F01F051F
:100AF0000124AC4005786D11AD0005F1E025C5F885
:100B0000004109E0047804F01F050124AC401C4DAD
:100B10000678761145F8264070BD1A4A0A4002430D
:100B2000154B1B1F1A60704739B1134A121D12680A
:100B30000243114B1B1D1A6006E00F4A121D12687A
:100B400082430D4B1B1D1A607047042808D14FF0DB
:100B5000E021096941F004014FF0E022116107E052
:100B60004FF0E021096921F004014FF0E02211610A
:100B7000704700000000FA050CED00E000E400E022
:100B800080E100E080FFFF1F10B50446CC4884429E
:100B900008D10121042000F02DFB0021042000F0E9
:100BA00029FB46E0C748844208D10121082000F013
:100BB00021FB0021082000F01DFB3AE0C2488442DE
:100BC00008D10121102000F015FB0021102000F0B9
:100BD00011FB2EE0BD48844208D10121202000F005
:100BE00009FB0021202000F005FB22E0B8488442E8
:100BF00008D10121402000F0FDFA0021402000F042
:100C0000F9FA16E0B348844208D10121802000F0AF
:100C1000F1FA0021802000F0EDFA0AE0AE488442AB
:100C200007D10121801500F0E5FA0021A01500F0A0
:100C3000E1FA10BD10B50121084600F0DBFA0021F1
:100C4000012000F0D7FA10BD2DE9F0410246002541
:100C50000026002000230024002791F803C00CF098
:100C60000F0591F803C00CF0100CBCF1000F03D07D
:100C700091F802C04CEA050591F800C0BCF1000FE4
:100C800031D0146800202BE04FF0010C0CFA00F377
:100C9000B1F800C00CEA03069E4220D183004FF059
:100CA0000F0C0CFA03F7BC4305FA03FC4CEA0404EE
:100CB00091F803C0BCF1280F06D14FF0010C0CFADB
:100CC00000FCC2F814C00AE091F803C0BCF1480F60
:100CD00005D14FF0010C0CFA00FCC2F810C0401C0A
:100CE0000828D1D31460B1F800C0BCF1FF0F34DD87
:100CF000546800202EE000F1080C4FF0010808FABB
:100D00000CF3B1F800C00CEA03069E4221D1830027
:100D10004FF00F0C0CFA03F7BC4305FA03FC4CEA46
:100D2000040491F803C0BCF1280F05D100F1080CB0
:100D300008FA0CF8C2F8148091F803C0BCF1480F0F
:100D400007D100F1080C4FF0010808FA0CF8C2F8BE
:100D50001080401C0828CED35460BDE8F0814FF6C7
:100D6000FF710180022181700421C1707047024629
:100D7000002093680B400BB1012000E00020704779
:100D80000146886880B2704702460020D3680B4055
:100D90000BB1012000E0002070470146C86880B216
:100DA000704701617047416170470AB1016100E01D
:100DB00041617047C16070474FF480320A438261DD
:100DC0008161826182698269704702460020434BDB
:100DD00018684FF68073184040EA021008433F4BF2
:100DE000186070473E49C8617047F0B50A46002355
:100DF00000240021002500F00046B6F1004F02D18A
:100E0000364EF16901E0354E7168C0F3034583B297
:100E100000F44016B6F5401F08D121F070612F4E46
:100E2000766826F070662D4F7E6012E000F4801622
:100E3000B6F5801F06D1032606FA05F4A14341F05A
:100E4000706106E0460D360103FA06F6B14341F043
:100E5000706122B1460D360103FA06F6314300F007
:100E60000046B6F1004F02D11C4EF16101E01B4E6D
:100E70007160F0BD30B500228B071C0F0F2303FA01
:100E800004F2164B08338C1053F824309343134C60
:100E900008348D1044F8253023468C1053F8243044
:100EA0008C07240F00FA04F423430C4C08348D10F3
:100EB00044F8253030BD0A49DC3108607047000035
:100EC00000080140000C01400010014000140140E6
:100ED00000180140001C01400020014000000140BA
:100EE00000002042DF48006840F00100DD49086052
:100EF00008464068DC490840DA494860084600680E
:100F0000DA490840D74908600846006820F4802084
:100F100008600846406820F4FE0048604FF41F0057
:100F200088607047CF49096821F48031CD4A11604B
:100F30001146096821F480211160B0F5803F03D08B
:100F4000B0F5802F0ED106E0C649096841F4803122
:100F5000C44A116007E0C349096841F4A021C14AAD
:100F6000116000E000BF00BF704710B501460022CD
:100F7000002300204A11012A02D1BA4C236806E05E
:100F8000022A02D1B74C236A01E0B64C636A01F031
:100F90001F02012494401C400CB1012000E00020FD
:100FA00010BD38B5002000900024002500BF31207E
:100FB000FFF7DBFF05460098401C00900098B0F555
:100FC000A06F01D0002DF2D03120FFF7CEFF08B185
:100FD000012400E00024204638BD01460020A14A3B
:100FE000106820F0F80040EAC10010607047A04986
:100FF00008607047024600209A4B586820F47C1025
:1010000042EA01031843974B5860704798490866B5
:10101000704701460020934A506820F003000843BF
:10102000506070478F48406800F00C0070470146E0
:1010300000208C4A506820F0F00008435060704750
:1010400001460020874A506820F4E0600843506061
:10105000704701460020834A506820F4605040EAFF
:10106000C1005060704729B17E4A527A02437D4BDD
:101070005A7204E07B4A527A82437A4B5A72704722
:101080007B49D8310860704701460020754A506896
:1010900020F440400843506070470021714A2032DC
:1010A0001170704A82F82010012802D004280AD159
:1010B00004E001216B4A2032117005E00521694AE4
:1010C0002032117000E000BF00BF7047694908601E
:1010D00070476449096A0143624A11627047654971
:1010E00044390860704730B50021002200240023F5
:1010F0005C4D6D6805F00C0121B1042905D008296B
:1011000023D105E05C4D056022E05B4D05601FE0EA
:10111000544D6D6805F47012524D6D6805F48034BD
:10112000022505EB92421CB9544D554305600BE076
:101130004C4D6D6805F400351DB1504D55430560AB
:1011400002E04D4D5543056002E04B4D056000BF88
:1011500000BF444D6D6805F0F0010909484D6B5C16
:101160000568DD4045603F4D6D6805F4E061090AA2
:10117000434D6B5C4568DD4085603A4D6D6805F414
:101180006051C90A3E4D6B5C4568DD40C560354D18
:101190006D6805F44041890B3A4D6B5CC568B5FB41
:1011A000F3F5056130BD29B12E4A526902432D4B3A
:1011B0005A6104E02B4A526982432A4B5A617047B4
:1011C00029B1284A92690243264B9A6104E0254AD4
:1011D00092698243234B9A61704729B1214AD269AF
:1011E0000243204BDA6104E01E4AD26982431D4B60
:1011F000DA61704729B11B4AD2680243194BDA60A1
:1012000004E0184AD2688243164BDA60704729B16D
:10121000144A12690243134B1A6104E0114A12691D
:101220008243104B1A617047124940390860704779
:101230000F49C86470470B49C87170470948406A34
:1012400040F0807007494862704701460020054A17
:1012500092680A400AB1012000E00020704701496D
:1012600088727047001002400000FFF8FFFFF6FE92
:10127000000042428004424200127A0000093D0010
:101280002E0000203E00002010B50446FE48844297
:1012900008D10121C014FFF7ADFF0021E014FFF7D2
:1012A000A9FFC4E0B4F1804F08D101210846FFF73F
:1012B000AEFF00210120FFF7AAFFB8E0F348844207
:1012C00008D101210220FFF7A2FF00210220FFF731
:1012D0009EFFACE0EE48844208D101210420FFF7D4
:1012E00096FF00210420FFF792FFA0E0E948844226
:1012F00008D101210820FFF78AFF00210820FFF70D
:1013000086FF94E0E448844208D101211020FFF7D1
:101310007EFF00211020FFF77AFF88E0DF4884423B
:1013200008D101212020FFF772FF00212020FFF7C4
:101330006EFF7CE0DA48844208D101214014FFF7B7
:1013400059FF00216014FFF755FF70E0D548844233
:1013500009D10121C804FFF74DFF00214FF40020FF
:10136000FFF748FF63E0D048844209D10121080516
:10137000FFF740FF00214FF48010FFF73BFF56E0DE
:10138000CA48844209D101214805FFF733FF0021F3
:101390004FF40010FFF72EFF49E0C548844208D102
:1013A00001214020FFF733FF00214020FFF72FFFEE
:1013B0003DE0C048844208D101218020FFF727FF8B
:1013C00000218020FFF723FF31E0BB48844208D191
:1013D00001218015FFF71BFF0021A015FFF717FF64
:1013E00025E0B648844209D101210804FFF702FF35
:1013F00000214FF48030FFF7FDFE18E0B048844232
:1014000009D101214804FFF7F5FE00214FF4003017
:10141000FFF7F0FE0BE0AB48844208D101218804BD
:10142000FFF7E8FE00214FF48020FFF7E3FE10BD38
:1014300000220288944B98420ED0994B98420BD0D0
:10144000B0F1804F08D0914B984205D0904B984214
:1014500002D0904B984204D14FF68F731A404B88BC
:101460001A438D4B984207D08C4B984204D04FF6CC
:10147000FF431A40CB881A4302808B8883850B88F0
:101480000385814B98420BD0854B984208D08B4BFB
:10149000984205D08A4B984202D08A4B984201D19B
:1014A0000B7A038601238382704770B500240022E3
:1014B0000023058C4FF6FE7635400584028C838828
:1014C000048B4FF68F752C40B51E2C400D882C4395
:1014D000751E2A400D892A434D882A436A4DA84229
:1014E0000BD06F4DA84208D0744DA84205D0744D62
:1014F000A84202D0734DA84213D14FF6F7752A4087
:101500004D892A434FF6FB752A408D882A434FF6B2
:10151000FF652B404FF6FF552B408D892B43CD891E
:101520002B4383800483CD888586028470BD70B58B
:10153000002400220023058C4FF6EF763540058409
:10154000028C8388048B48F6FF752C404FF6FF45CC
:101550002C400D884FF6FF7606EA05252C434FF602
:10156000DF752A400D8906EA05152A434D8806EAEB
:1015700005152A43444DA84202D0494DA8421DD129
:101580004FF67F752A404D894FF6FF7606EA05151E
:101590002A434FF6BF752A408D8806EA05152A436F
:1015A0004FF6FF352B404FF2FF752B408D8906EA31
:1015B00085052B43CD8906EA85052B43838004836B
:1015C000CD880587028470BD70B5002400220023F9
:1015D000058C4FF6FF6635400584028C8388848B2A
:1015E0004FF68F752C404FF6FC752C400D882C4320
:1015F0004FF6FF552A400D894FF6FF7606EA05257E
:101600002A434D8806EA05252A431F4DA84202D0E9
:10161000234DA8421DD14FF2FF752A404D894FF648
:10162000FF7606EA05252A434FF6FF352A408D88C6
:1016300006EA05252A434EF6FF752B404DF6FF7549
:101640002B408D8906EA05152B43CD8906EA051541
:101650002B4383808483CD888587028470BD70B5D9
:10166000002200230024058C4EF6FF7635400584C9
:10167000038C8488828B48F6FF752A404FF6FF451D
:101680002A400D8820E00000002C014000040040AA
:1016900000080040000C0040001000400014004012
:1016A00000340140004C0140005001400054014012
:1016B00000180040001C0040002000400040014095
:1016C00000440140004801404FF6FF7606EA052538
:1016D0002A434DF6FF752B400D8906EA05352B434D
:1016E0004D8806EA05352B43FA4DA84202D0FA4D43
:1016F000A84208D14BF6FF752C408D894FF6FF7636
:1017000006EA85152C4384808283CD88A0F840505A
:10171000038470BD828B4FF2FF331A408283828B29
:101720004FF6FF7303EA01231A4382837047F0B533
:101730000C461546002200210026078C4EF6FF7C41
:1017400007EA0C070784828B018C4FF6FF7707EAC4
:10175000043640F6FF473A404FF6FF7707EA052781
:101760003A434FF6FF7707EA03373A43D94FB84277
:101770000ED0D94FB8420BD0B0F1804F08D0D74F20
:10178000B84205D0D64FB84202D0D64FB84206D1A3
:101790004DF6FF77394046F48057394305E047F668
:1017A000FF57394044F48057394382830184F0BDA8
:1017B000828B4FF6F3731A408283828B0A438283B3
:1017C0007047F0B50C461546002200210026078C14
:1017D0004FF6FF6C07EA0C070784828B018C4FF6EB
:1017E000FF7707EA04264FF60C773A404FF6FF776B
:1017F00007EA03172F433A43B64FB8420ED0B64F0D
:10180000B8420BD0B0F1804F08D0B44FB84205D0E9
:10181000B34FB84202D0B34FB84206D14FF6FF578C
:10182000394046F48077394305E04FF2FF5739409D
:1018300044F48077394382830184F0BD028B4FF2F8
:10184000FF331A400283028B4FF6FF7303EA012332
:101850001A4302837047F0B50C461546002200215A
:101860000026078C4FF6EF7C07EA0C070784028BF3
:10187000018C4FF6FF7707EA041640F6FF473A401F
:101880004FF6FF7707EA03373A434FF6FF7707EA49
:1018900005273A438F4FB8420ED08F4FB8420BD036
:1018A000B0F1804F08D08D4FB84205D08C4FB84270
:1018B00002D08C4FB84206D14FF6DF77394046F060
:1018C0001007394305E04FF65F77394044F01007C1
:1018D000394302830184F0BD028B4FF6F3731A4043
:1018E0000283028B0A4302837047F0B50C4615460B
:1018F00000220021068C4FF6FE773E400684028BC4
:10190000018C4FF60C7632407E1C06EA03162E43FD
:101910003243704EB0420ED06F4EB0420BD0B0F199
:10192000804F08D06D4EB04205D06D4EB04202D00F
:101930006C4EB04206D14FF6FD76314044F00106C0
:10194000314305E04FF6F576314044F0010631436E
:1019500002830184F0BD70B505460C465D488542A2
:101960000ED05D4885420BD0B5F1804F08D05B4862
:10197000854205D05A48854202D05A48854200D156
:1019800000E000BF208850B92389A28861882846DA
:10199000FFF7ABFFE1882846FFF79EFF25E0208890
:1019A00004280AD12389A28861882846FFF753FFBB
:1019B000E1882846FFF742FF17E0208808280AD16F
:1019C0002389A28861882846FFF7FBFEE188284624
:1019D000FFF7EEFE09E02389A28861882846FFF719
:1019E000A6FEE1882846FFF795FE70BD2DE9F0417F
:1019F00005460C4600260127608808B9022600E04B
:101A00000026A088012801D1022700E001272088B4
:101A1000A0B92389A28861882846FFF766FFE1887C
:101A20002846FFF759FF23893A4631462846FFF7F3
:101A300012FFE1882846FFF701FF13E02389A288FF
:101A400061882846FFF707FFE1882846FFF7F6FE82
:101A500023893A4631462846FFF747FFE188284662
:101A6000FFF73AFFBDE8F0810A884B881A438B885C
:101A70001A43CB881A430B891A434B891A438B8923
:101A80001A43A0F8442070474FF6FF71818000216F
:101A90000180C18041800172704700210180418036
:101AA0008180C180018141818181C1817047002194
:101AB00001804180012181800021C1800181704726
:101AC0000021018041808180C1800181418181812B
:101AD00070470000002C0140003401400004004029
:101AE00000080040000C004021B1028842F00102D1
:101AF000028004E002884FF6FE731A4002807047AD
:101B000031B1B0F8442042F40042A0F8442005E08E
:101B1000B0F84420C2F30E02A0F8442070471AB176
:101B200083890B43838102E083898B4383817047E0
:101B30008182704741EA0203A0F8483070471AB129
:101B400083890B43838102E083898B4383817047C0
:101B500001894FF6F8721140018170470A46002151
:101B600001894FF68F73194011430181704730B5D9
:101B700004460D4629462046FFF7F0FF208940F035
:101B80000700208130BD2DE9F04104460D46164680
:101B90001F46602D06D13B46012231462046FFF705
:101BA0005AFE05E03B46012231462046FFF79DFEE6
:101BB00029462046FFF7D2FF208940F00700208108
:101BC000BDE8F08130B50C4600210189C9B24FF65D
:101BD000FF7505EA0325154325432943018130BDDF
:101BE0002DE9F04105460E46174698460024434627
:101BF0003A4631462846FFF7E5FF2C894FF6F87044
:101C0000044044F007044FF68F70044044F0700421
:101C10002C81BDE8F081F0B504460D4616461F46FE
:101C20003B46324629462046FFF7CCFF208940F448
:101C300080402081F0BD0185828270470A460021E4
:101C400001884FF68F731940114301807047F0B53A
:101C50000C4615461E460021002200230189028BF6
:101C6000038C4FF6F877394021434FF6FC473A4052
:101C700040F201173A434FF6DD773B404FF6FF77CE
:101C800007EA06172F433B43018102830384F0BD1B
:101C90000A460021018B4FF68F73194011430183CF
:101CA00070470A460021018B48F6FF7319404FF632
:101CB000FF7303EA02231943018370470A46002198
:101CC000818B4FF68F7319401143818370470A4609
:101CD0000021818B48F6FF7319404FF6FF7303EA2A
:101CE000022319438183704721B1028842F08002A8
:101CF000028004E002884FF67F731A40028070472A
:101D000021B1828842F00402828004E082884FF68A
:101D1000FB731A408280704721B1828842F008022A
:101D2000828004E082884FF6F7731A408280704701
:101D300021B1828842F00102828004E082884FF65D
:101D4000FE731A40828070470A460021018B4FF6CD
:101D5000F77319401143018370470A460021018B34
:101D60004FF2FF7319404FF6FF7303EA0223194342
:101D7000018370470A460021818B4FF6F7731940A3
:101D80001143818370470A460021818B4FF2FF7314
:101D900019404FF6FF7303EA02231943818370470A
:101DA0000A460021018B4FF6FB7319401143018352
:101DB00070470A460021018B4FF6FF3319404FF65A
:101DC000FF7303EA02231943018370470A46002187
:101DD000818B4FF6FB7319401143818370470A468C
:101DE0000021818B4FF6FF3319404FF6FF7303EA52
:101DF00002231943818370470A460021018B4FF665
:101E00007F7319401143018370470A460021018BFB
:101E1000C1F30E014FF6FF7303EA02231943018356
:101E200070470A460021818B4FF67F73194011439A
:101E3000818370470A460021818BC1F30E014FF662
:101E4000FF7303EA02231943818370470A46002186
:101E5000018C4FF6FD7319401143018470470A4607
:101E60000021018C4FF6F77319401143018470472C
:101E70000A460021018C4FF6DF7319404FF6FF73BD
:101E800003EA02131943018470470A460021018CBA
:101E90004FF67F7319404FF6FF7303EA021319439D
:101EA000018470470A460021018C4FF6FF53194008
:101EB0004FF6FF7303EA02231943018470470A4671
:101EC0000021018C4FF2FF7319404FF6FF7303EAB4
:101ED00002231943018470470A460021018C4DF604
:101EE000FF7319404FF6FF7303EA0233194301846D
:101EF000704730B5002301248C40A3B2048C9C436E
:101F00000484048C02FA01F5ADB22C43048430BD84
:101F100030B5002304248C40A3B2048C9C43048479
:101F2000048C02FA01F5ADB22C43048430BD70B5C7
:101F30000346002000241846183001258D40ACB21D
:101F40001D8CA5431D8409B1082909D100EB61004E
:101F5000056825F0700505600568154305600EE00D
:101F60000D1FC5F34E052844056825F4E0450560BE
:101F700005684FF6FF7606EA02263543056070BD18
:101F800021B1028842F00202028004E002884FF68A
:101F9000FD731A400280704721B1028842F00402AA
:101FA000028004E002884FF6FB731A4002807047FB
:101FB00021B1828842F08002828004E082884FF65C
:101FC0007F731A408280704702884FF6F7731A4079
:101FD000028002880A430280704782884FF68F731E
:101FE0001A40828082880A438280704702894FF6B5
:101FF000F8731A40028102890A43028170470289FC
:102000004FF67F731A40028102890A4302817047AA
:10201000818470478185704781867047018770474A
:1020200081877047A0F84010704702884FF6FF4341
:102030001A40028002880A43028070470146888E57
:1020400070470146088F70470146888F70470146E8
:10205000B1F8400070470146888C70470146088DF2
:10206000704702460020138A0B400BB1012000E0AC
:1020700000207047CA430282704730B502460020F4
:1020800000230024158A05EA0103958905EA010465
:1020900013B10CB1012000E0002030BDCA43028220
:1020A0007047000010B50446FB48844209D1012165
:1020B0008803FFF79FF800214FF48040FFF79AF85C
:1020C00032E0F648844209D101214804FFF79FF825
:1020D00000214FF40030FFF79AF825E0F0488442E1
:1020E00009D101218804FFF792F800214FF48020E4
:1020F000FFF78DF818E0EB48844209D10121C804AC
:10210000FFF785F800214FF40020FFF780F80BE07F
:10211000E548844208D101210805FFF778F800213D
:102120004FF48010FFF773F810BD2DE9F04786B02B
:1021300005460E460024A24600BFA1460027B089EE
:1021400000B100BF2F462C8A4CF6FF700440F08887
:1021500004432C82AC894EF6F3100440B0883189D8
:102160000843718908430443AC81AC8A4FF6FF40B1
:102170000440B0890443AC8201A8FEF7B4FFC6480E
:10218000874202D1DDF810A001E0DDF80CA0A8899B
:1021900000F4004040B10AEBCA0000EB0A103168BD
:1021A0004900B0FBF1F807E00AEBCA0000EB0A10A7
:1021B00031688900B0FBF1F86420B8FBF0F004014D
:1021C0002009642101FB1089A88900F4004040B176
:1021D000322000EBC900B0FBF1F000F0070004432F
:1021E00008E0322000EB09106421B0FBF1F000F0B0
:1021F0000F0004432C8106B0BDE8F0874FF4165160
:10220000016000218180C18001810C214181002178
:102210008181704710B502460020108A4FF2FF03FB
:1022200018400B884C8823438C882343CC88234355
:102230001843108210BD0021018041808180C1803F
:10224000704721B1828942F40052828104E0828980
:102250004DF6FF731A4082817047F0B503460024A3
:1022600000260025002040F66A17B94200D100BFC1
:102270001846C1F3421401F01F06012707FA06F5BC
:10228000012C01D10C3004E0022C01D1103000E00F
:1022900014301AB107682F43076002E00768AF43A4
:1022A0000760F0BD1AB1838A0B43838202E0838A00
:1022B0008B4383827047028A4FF6F0731A40028282
:1022C000028A0A430282704782894FF2FF731A40E2
:1022D000828182890A438281704721B1828942F0DA
:1022E0000202828104E082894FF6FD731A408281E6
:1022F0007047028A4FF6DF731A400282028A0A434D
:102300000282704721B1028A42F48042028204E0D4
:10231000028A4BF6FF731A4002827047C1F308022B
:102320008280704701468888C0F308007047818921
:1023300041F0010181817047028BD2B20283028B8E
:1023400042EA012202837047028B02F47F42028339
:10235000028B0A430283704721B1828A42F0200235
:10236000828204E0828A4FF6DF731A4082827047CD
:1023700021B1828A42F01002828204E0828A4FF602
:10238000EF731A408282704721B1828A42F00802BC
:10239000828204E0828A4FF6F7731A408282704785
:1023A00021B1828942F40042828103E08289C2F332
:1023B0000E028281704721B1828A42F400628282D9
:1023C00004E0828A4FF2FF731A4082827047828A49
:1023D0004FF6FB731A408282828A0A4382827047D8
:1023E00021B1828A42F00202828204E0828A4FF6A0
:1023F000FD731A408282704702460020B1F5007FCB
:1024000000D100BF13880B400BB1012000E0002079
:10241000704701F40072B2F5007F00D100BFCA43DB
:102420000280704770B5024600240023002500207A
:1024300040F66A16B14200D100BFC1F3421501F067
:102440001F03012606FA03F3012D02D196893340BA
:1024500006E0022D02D1168A334001E0968A33400D
:102460000C12012606FA04F41688344013B10CB19C
:10247000012000E0002070BD10B50022002340F6CE
:102480006A14A14200D100BF0A1201249440A3B2F1
:10249000DC43048010BD00000038014000440040CF
:1024A00000480040004C004000500040704770471A
:1024B000704770477047754600F02CF8AE4605002F
:1024C0006946534620F00700854618B020B5FEF750
:1024D000DBFABDE820404FF000064FF000074FF058
:1024E00000084FF0000B21F00701AC46ACE8C00932
:1024F000ACE8C009ACE8C009ACE8C0098D4670473B
:1025000010B50446AFF300802046BDE81040FDF74B
:1025100056BE0000004870473801002010B591EA0F
:10252000030F48BF83F0004300F1EA81841A71EB86
:10253000030C05D2121943EB0C03001B61EB0C01D9
:10254000DFF824E14FEA1154A4EB135C1EEA430FB9
:1025500018BF9EEA445F73D023EA0E03DCF1200E1D
:1025600021EA045143F4801332D322FA0CFE10EB1B
:102570000E0023FA0CFE41EB0E01CCF1200E03FA03
:102580000EFE10EB0E0051F10001B1F5801FCCF1F1
:10259000200E32D201EB045112FA0EF2BDE81040C7
:1025A00058BF7047401C38BF5FEA420218BF7047EF
:1025B000002814BF20F0010041F100014FEA41035F
:1025C00013F5001F38BF7047A1F1C04100F08AB970
:1025D000012A43EB0302ACF1200CDCF11F0E32BFE9
:1025E0004FF0000E23FA0CF310EB030041EB045103
:1025F000B4EB115FD0D0A1EB045101F58011490873
:102600005FEA300001EB04510ED350F1000038BFF7
:1026100012FA0EFE08D1BDE81040C9E7401C38BFD1
:102620005FEA4202CAD1C3E7BDE810404FEA410366
:1026300013F5001F38BF7047A1F1C04100F052B937
:102640009EEA445F08D011EA5E0FBDE8104004BF67
:1026500001F0004100207047BDE8104070B500F067
:10266000F3F800BF64FBBE3E0000E0FF4FEA1153E9
:10267000A3F58063D3F11E03A8BFD3F1200C08DBC0
:102680004FF0004242EAC12252EA505232FA03F0BD
:10269000704709420BD4102BC4BF0020704703F5CC
:1026A000787CBCF1FF3F05D04FF0FF3070474FF012
:1026B0000000704770B500F0C7F800BF4992248051
:1026C00000207047F0E710F0004248BF4042B0FAE7
:1026D00080F310FA03F10AD0C3F11D0303F5806300
:1026E0004FEA415002EB035202EBD12170474FF009
:1026F00000007047DFF848C170B51CEA111E1EBF0C
:102700001CEA13159EEA0C0F95EA0C0F00F06F807F
:1027100081EA030423EA4C134EEAD47E21EA4C11E9
:1027200041F4801143F48013AE44A1FB024CA0FBA2
:102730000365AEF17F7E361955EB0C05A1FB034C0A
:102740004CF10003A0FB021C16EB0C06654153F193
:102750000003094218BF46F0010613F4007F0BD1B5
:102760004FEA03314FEA0530340341EA155140EA9C
:1027700016506FF003020AE04FEAC3214FEAC5206A
:10278000F40241EA555140EA56506FF0020202EB62
:102790002E4201EB025585EACE710AD05FEA440C65
:1027A00018BF24F0004450F1000041F1000120EA7C
:1027B000D47040F2FE7C624500D270BDA84214BFC6
:1027C0004FF080444FF04044002E08BF0024BEF17B
:1027D000806FA8BFA1F1C041BDE8704080F2828047
:1027E0004FF0000001F1C04101F0004170479EEA46
:1027F0000C0F0CEA131518BF95EA0C0F06D04FF01A
:10280000000081EA030E0EF0004170BD00F01CF8DC
:102810008900013E00F007B800F009B84FEA430C08
:102820005FEA5C5C08D081EA030100F05BB84FEA24
:10283000410C5FEA5C5CF6D14FF000000149704743
:102840000000FF070000F87F0EF1020E2EF0030ECD
:102850005EF8046B364205D4012A43EB030515F5F7
:10286000001F12D8012841EB010C1CF5001F0CD8E9
:102870000ED14FEAD17C15F5001F0CEB4C0C0CF17E
:10288000020C08BF4CEBD37C04E04FF0080C01E0D5
:102890004FEAD37C0CEB4C0526FA05F606F007064A
:1028A000B6F1040C06D20EEB860CBDE870404CF07D
:1028B000010C6047DFE80CF0090B02024FF0004109
:1028C0004FF00000A1F5002170BD19461046012807
:1028D00051EB010418BFD4F5001484BF002001F0AF
:1028E000004170BD0808A0F500114FEA31017047A2
:1028F00010B591EA030F48BF83F000433FF516AED1
:10290000841A71EB030C07D212198CF0004C43EBC4
:102910000C03001B61EB0C01DFF8A4E14FEA11543A
:10292000A4EB135C1EEA430F18BF9EEA445F00F05D
:10293000B08023EA6E03524221EA0451C3EB6E03D6
:1029400038BF5B1EDCF1200E25D322FA0CFE10EB03
:102950000E0043FA0CFE41EB0E01CCF1200E03FAFF
:102960000EFE10EB0E0051F10001CCF1200E29D427
:1029700012FA0EF201EB0451BDE8104058BF704747
:10298000401C1CBFB2F1004F704700280CBF491C0F
:1029900020F00100704712EB020E43EB030218BF58
:1029A0004FF0010E4EEA4202ACF1200CDCF11E0E9B
:1029B00054D943FA0CFE10EB0E0051F1FF31CCF16B
:1029C0001E0ED5D50EF1010E12FA0EFE404141EB5E
:1029D000010101EB445C5FEA5C5C10D910EBDE7036
:1029E00001EB045138BFBEF1004FBDE8104018BFE5
:1029F000704700280CBF491C20F00100704730D2FE
:102A00004FEAD42C11F5001124F400641BD0B1FA64
:102A100081F20B3AA41AA41ED2F12003914030FA9D
:102A200003F31943904001EBCC71002C01EB0451EE
:102A3000BDE81040A8BF704701F1C0414FF0000051
:102A400001F000417047B0FA80F310FA03F100D1B1
:102A500010BDE41A173C4805C90AE4E701EB04512C
:102A600010BD491001EB0451BDE810404FEA3000A1
:102A700002E04FF0000170474A0008BF0042F8D062
:102A8000B2F5001F28BF704701F000414FF0000071
:102A900070479EEA445F07D011EA5E0FBDE8104020
:102AA00004BF002100207047BDE8104070B5FFF75B
:102AB000CBFE00BF40DFF63E83F00041104670477A
:102AC0000000E0FF43004FEAD30C4FEA3C0C4340C8
:102AD0001FBF40070CF1605113F0FE4F70471CF010
:102AE000006F03D100200CF0004170470CF0004350
:102AF00043EA507010B540EACC0000F00EF800BF79
:102B0000000000924FEA0001FFF7ECBE4FF00041D9
:102B10004FF00000A1F5002170470EF1020E2EF0DB
:102B2000030E5EF8044B244204D44FEA4102B2F192
:102B30007F4F11D84FEA4003B3F17F4F0CD80ED12D
:102B40004FEAD07CB2F17F4F0CEB4C0C0CF1020C35
:102B500008BF4CEBD17C04E04FF0080C01E04FEAD9
:102B6000D17C0CEB4C0324FA03F404F00704B4F119
:102B7000040C06D20EEB840CBDE810404CF0010CA6
:102B80006047DFE80CF0070802024FF00040A0F5B4
:102B9000800010BD0846420018BFD2F1807288BF85
:102BA00000F0004010BD0000C82B0008000000200D
:102BB000440000006C0100080C2C000844000020B8
:102BC0005407000088010008000000000100000018
:102BD00000A24A04000000000000000001020304FB
:102BE00006070809E71400CE0000000000000000FE
:102BF00000000000000000000000010203040102C8
:0C2C00000304060708090204060800008F
:0400000508000131BD
:00000001FF
